:0400000085EF00F098
:1000080072717271727172717271727172717271D0
:1000180072717271727172717271727172717271C0
:1000280072717271727172717271727172717271B0
:1000380072717271727172717271727172716971A9
:100048007271727172717271727172717271727190
:100058007271727172717271727172717271727180
:100068007271727172717271727172717271727170
:100078007271727172717271420072717271727101
:100088007271727172717271727172717271727150
:10009800727172717271727142003D717271727116
:1000A80072715C7172717271727172717271727146
:1000B800727124717271727172717271727172716E
:1000C8007271727172717271727172717271727110
:1000D8007271727172717271727172717271727100
:1000E8004200727172717271727172717271727191
:1000F8007271AA70727172717271727172717271A9
:06010800FF009DEFE2F094
:02FFFE00000001
:020000040001F9
:10000000C37B00C3390D0000C340000000000000A6
:10001000C348000000000000C350000000000000C2
:10002000C358000000000000C36000000000000092
:10003000C368000000000000C37000000000000062
:10004000220EEF2A00EF182E220EEF2A02EF1826BA
:10005000220EEF2A04EF181E220EEF2A06EF1816C2
:10006000220EEF2A08EF180E220EEF2A0AEF1806CA
:10007000220EEF2A0CEFE52A0EEFC9F33100EF2133
:1000800000C02230EF2237EF2235EF3E493239EF00
:100090002134142200EF2123142202EF212E1422F6
:1000A00004EF217A002206EF217A002208EF21FED8
:1000B0000C220AEF217D0D220CEFAF213CEF061A36
:1000C000772310FC21C0EE2250EF2100C02252EF16
:1000D00006083E2E2181EF772310FCAF770614210E
:1000E0006DEFAF772310FC3E493267EF3E4E32662C
:1000F000EF2E0026002268EFAF326CEF2100C02205
:100100006FEF2273EF2277EF227BEF227FEF7E32B9
:100110006EEF3272EF3276EF327AEF327EEF218E6F
:1001200011CDF00B21CB11CDF00BCD580CCDA90C7E
:10013000CDB00CB728EEFE44CADC06FE47CAE00785
:10014000FE53CAAA08FE4CCA2009FE50CAFD09FE89
:1001500052CAD80AFE23CA7701FE42CA9102FE544F
:10016000CA4F03FE3F280821E811CDF00B18B52136
:10017000EE0FCDF00B18AD23CDA90CCDB00CB728E8
:10018000E6FE4C2825CD220238DD79FE11D267012A
:10019000B7CA67013D1716005F21C801195E2356D3
:1001A000EB5E23567AB328BFEBE921C8015E2356E4
:1001B00023D5DDE1DD7E00DDB60128091313EBCD8B
:1001C000F00BEB18E8C32401E8010402200220022E
:1001D000200220022002200220022002200220020F
:1001E00020022002200220020020312E2042415312
:1001F0004943342E376220436F6C6420537461721C
:10020000740D0A000320322E204241534943342EFC
:100210003762205761726D2053746172740D0A0049
:100220000000AF474FCDA90CCDB00CB7C8CD4302ED
:10023000D8F508F1CD5202D80816005FCD6902D872
:100240002318E2B7280AFE30D8FE3A3003D630C968
:1002500037C9C5CB21CB10CB21CB10CB21CB10D1B3
:10026000D8CD6902D8CD6902C9E5D5E109E5C1E17A
:10027000C93A75EFB728082A77EF3E31CD35033AF2
:1002800079EFB7CA24012A7BEF3E32CD3503C32470
:100290000123CDA90CCDB00CB728D60175EFFE31E6
:1002A000280E0179EFFE322807FE432841C367017B
:1002B0000823CDA90CCDB00CB7285DFE2CC2670178
:1002C00023CDA90CC5CDB90CE1DA6701CDD502DA91
:1002D0006701C324017AFEC0DAEC02FEF0D2EC0220
:1002E0003E0177231A7723732372B7C937C923CD09
:1002F000A90CCDB00CB728140175EFFE3128080108
:1003000079EFFE32C26701AF02C32401AF0175EF7E
:10031000020179EF02C324010AB7CA2401082A772F
:10032000EFFE3128032A7BEFCD3503C32401425071
:100330002800293A00E5F5212E03CDF00BF1CD344C
:1003400014213203CDF00BE1CDF90BCD3C0CC9E506
:100350002E0026002268EF2A52EF226AEFAF326C9D
:10036000EFE123CDA90CCDB90CD22104CDA90C7E8F
:10037000B7CA4A04FE2CCA3204CDB00CFE50285134
:10038000FE4DC2670123CDA90CCDB00C21C303FEE5
:1003900049281021C903FE532809B7C267013A67EB
:1003A000EF18E93267EFE521B403CDF00BE1CDF0B2
:1003B0000BC32401544D206D6F64653A3C43414C9E
:1003C0004C2000494E3E0D0A00534B49503E0D0A49
:1003D0000023CDA90CCDB00CB720053A66EF180C60
:1003E000FE4FC2670123CDA90CCDB00C211604FE2F
:1003F0004E2808211B04FE46C267013266EFE52144
:100400000C04CDF00BE1CDF00BC324015450206D52
:100410006F64653A20004F4E0D0A004F46460D0AA4
:1004200000ED536AEFCDA90CB7281FFE2C2803C39B
:10043000670123CDA90CB7CA6701FE2D2811CD2273
:1004400002DA6701ED4368EF181B01010018F5237C
:10045000CDA90CFE31C2670123CDA90CB7C267013B
:100460003E01326CEF2A6AEF7E01080021FA05EDA9
:10047000B120130E01CDCB05DA8A050E02CDAB05F6
:10048000DA8A05C38705010500210206EDB12019AE
:100490000E012A6AEFCD9E05CDD805DA8A050E0237
:1004A000CDB005DA8A05C38705010800210706EDEE
:1004B000B120040E011813010800210F06EDB12030
:1004C0001A0E013A67EFFE532808CDBF05DA8A05F8
:1004D0000E02CDB505DA8A05C38705FEC9200B0ECD
:1004E00001CDCB05DA8A05C387050108002117066F
:1004F000EDB1200B0E01CDAB05DA8A05C38705FEF1
:10050000ED2013237EFE452804FE4D20090E01CD6B
:10051000CB05387618712A6AEF7EFEE9200C2A4254
:10052000EF0E01CDD8053862185DFEDD200B237E6D
:10053000FEE920052A4CEF18E82A6AEF7EFEFD202E
:100540000B237EFEE920052A4EEF18D52A6AEF7E9E
:10055000FE18200C0E01CD9E05CDD805382C18278D
:10056000FEC320090E01CDBF05381F181AFECDC2EB
:100570001F060E013A67EFFE532807CDBF05380A64
:100580001805CDB5053803C32308219405CDF00B1C
:10059000C32401FF416472204552520D0A00235EBC
:1005A0002316FFCB7B2002160019C92A6AEF180A0E
:1005B0002A6AEF18042A6AEF232323CDD805C92A13
:1005C0006AEF235E2356EBCDD805C9ED5B50EF1AD9
:1005D0006F131A67CDD805C97CFEC0381BFEF030FA
:1005E0001779FE012009116DEF12226FEF18071124
:1005F00071EF122273EFAFC937C9C0C8D0D8E0E895
:10060000F0F81020283038C2CAD2DAE2EAF2FAC48E
:10061000CCD4DCE4ECF4FCC7CFD7DFEFE7F7FF0185
:10062000120021B806EDB1CA930601080021CA06DE
:10063000EDB1CA9E062A6AEFFECB2857FEDD280AD6
:10064000FEED2828FEFD2802183E237EFECB285909
:10065000FE212855FE222851FE2A284DFE36284923
:10066000010A0021D206EDB128291832237EFE436B
:100670002837FE4B2833FE53282FFE5B282BFE73B2
:100680002827FE7B2823180B0E01CDAB05DA8A053F
:10069000C387050E01CDB005DA8A05C387050E01B3
:1006A000CDB505DA8A05C387050E012A6AEF23CD89
:1006B000B805DA8A05C38705060E161E262E363EB5
:1006C000C6CED3D6DBDEE6EEF6FE011121222A31BC
:1006D000323A091923292B39E1E3E5F923CDA90C95
:1006E000CDB90C3014CDA90C7EB7C267012A30EF0A
:1006F000018000092232EF182FED5330EFCDA90C05
:100700007EFE2C280DB7C26701218000192232EF2E
:10071000181623CDA90CCDB90CDA6701CDA90CB7F9
:10072000C2670113ED5332EF2A30EF3EF0A56FAFF1
:100730003234EFE5CD5A07E101100009CD2E142027
:10074000103A34EFFE0238EB2A32EF2230EFC324A6
:10075000012230EFCD2314C32401CDF90BE521F0A4
:1007600011CDF00BE1DD2110EF0610CD940710FB49
:1007700021F311CDF00B2110EF06107E23FE20385F
:1007800009FE7F3005CD341418053E2ECD341410EB
:10079000EAC33C0C3E20CD34143A34EFB720203A63
:1007A00030EFBD20063A31EFBC280F3E20CD341487
:1007B000CD3414DD770023DD23C93E013234EF3A16
:1007C00034EFFE0120E57EDD7700CDFE0B23DD2337
:1007D0003A32EFBDC03A33EFBCC03E023234EFC90B
:1007E000ED5B52EFED5364EF23CDA90CCDB90C3086
:1007F00003B7280A7AFEF0D26701ED5364EFCDA962
:100800000C7EB72818FE2CC2670123CDA90CCDB9E8
:100810000CDA6701217DEFCDD502DA67012A64EF9A
:100820002252EF2175EF1177EFCD9B082179EF115F
:100830007BEFCD9B083A6DEFB7281A2A6AEF225258
:10084000EF216DEF116FEFCD9B082171EF1173EF69
:10085000CD9B081809217DEF117FEFCD9B082A5011
:10086000EFF92A52EFE5DD2A4CEFFD2A4EEF2A443C
:10087000EFE5ED4B46EFED5B48EF2A4AEFD9F10883
:100880002A3CEFE5ED4B3EEFED5B40EF2A42EF3ABD
:1008900054EFED473A55EFED4FF1C97EB7C8231A33
:1008A0004F131A470A773EFF02C923CDA90CCDB9D1
:1008B0000CDA6701CDA90C7EB7C2670179B72004B5
:1008C000ED5B37EFEBCDF90BE521F311CDF00BE14B
:1008D0007EE5CDFE0B3E20CD3414CD580CCDA90CB9
:1008E0007EB72007E1232237EF18DAFE2D2007E13B
:1008F0002B2237EF18CFFE2E2007E12237EFC3243B
:1009000001CDB90CB7E1CA670173232237EFED5B64
:1009100077EF1A3276EFED5B7BEF1A327AEF18A59C
:10092000AF3275EF3279EF23CDA90CCDB90CCDA93B
:100930000C7EB7C2670179B72003110000CD2314E4
:10094000CDB00CFE532861FE3A280DFE0D28EEFEB8
:100950000A28EACD231418F33E2ECD3414CD150CFD
:100960004F47CD150C67814FCD150C6F814F19CDB9
:10097000150C323AEF814F78B72814CD150CF5815C
:100980004F3A3AEFB72005F177231801F110ECCD7B
:10099000150C81200A3A3AEFB7CA5309C324012142
:1009A000CE11CDF00BC32401CD2314323AEFCD1577
:1009B0000C474FCD150C67814FCD150C6F814F192A
:1009C0000505052815CD150CF5814F3A3AEFFE3196
:1009D0002005F177231801F110EBCD150C81FEFFF6
:1009E00020123A3AEFFE372811FE38280DFE39283A
:1009F00009C3530921DB11CDF00BC32401237ECDA4
:100A0000B00CFE492804FE532004233239EFCDA94F
:100A10000CCDB90CB7281CD5DDE1CDA90C7EFE2C80
:100A2000201123CDA90CCDB90CB72807CDA90C7E78
:100A3000B72803C36701DDE5E1EB23B7ED52CD5ED7
:100A40000A7CB520F93A39EFFE49200921F711CD8A
:100A5000F00BC32401210512CDF00BC324010E10AD
:100A60007CB720057DB930014F0600B7ED42413A11
:100A700039EFFE4920303E3ACD341478CDFE0B4894
:100A80007ACDFE0B7A814F7BCDFE0B7B814FAFCDB4
:100A9000FE0B1AF5CDFE0BF1814F1310F579ED44E5
:100AA000CDFE0BC33C0C3E53CD34143E31CD34143B
:100AB00078C6034FCDFE0B7ACDFE0B7A814F7BCDEE
:100AC000FE0B7B814F1AF5CDFE0BF1814F1310F514
:100AD000792FCDFE0BC33C0C23CDA90CCDB00CB7A8
:100AE0002006CD640BC32401EB21BB12BE280D4FA1
:100AF000237EB7286C790105000918F0237EFE0FCC
:100B0000200C234E236669131ACDB00C18DEB728CB
:100B1000504E235E2356D5237E23666FCDF00B3EC9
:100B20003DCD341479E607FE012008E17EE5CDFED7
:100B30000B180CE1E5237ECDFE0B2B7ECDFE0B3E8C
:100B400020CD3414C5CD580CCDA90CCDB90CB72887
:100B50000DC1E179FE012003731803732372C324CE
:100B600001C367012112125E2356237AB3CA3C0CDB
:100B7000D5EBCDF00BEBD13E12BA20073E7DBB206A
:100B80000218293E12BA20053EA4BB281F5E235638
:100B9000237E23EBFE0120077ECDFE0BEB18C8233E
:100BA0007ECDFE0B2B7ECDFE0BEB18BB5E235623BA
:100BB0001AD5E52181EF01E00B11E80BF5F1CB2708
:100BC0003006F50A77F11804F51A77F1031323F5C7
:100BD0007EB720E9F12181EFCDF00BE1D123188719
:100BE000535A2E482E504E432E2E2E2E2E2E2E2E63
:100BF0007EA7C8CD34142318F77CCDFE0B7DF51FDE
:100C00001F1F1FCD070CF1E60FC630FE3ADA341471
:100C1000C607C33414AFCD1D0C07070707C54FCD5A
:100C20002314CDB00CFE303811FE3A380AFE41389C
:100C300009FE473005D607D630B1C1C93E0DCD34C7
:100C4000143E0AC33414E5214F0CCDF00BE1C91B4F
:100C50005B3200C506001806C52110EF0600CD2343
:100C600014FE0D283AFE0A2836FE08281BFE7F28AF
:100C700017FE2038E9FE8030E54F78FE1F30DF0494
:100C800079CD3414772318D678A728D2052B3E08BF
:100C9000CD34143E20CD34143E08CD341418BFCDCD
:100CA0003C0C36002110EFC1C97EFE20C02318F98C
:100CB000FE61D8FE7BD0C6E0C90E001100007ECDDB
:100CC000B00CFE30382CFE3A380AFE413824FE477C
:100CD0003020D607D6301717171717CB13CB12179C
:100CE000CB13CB1217CB13CB1217CB13CB12230C76
:100CF00018CC79B72806FE053002B7C937C9E5C553
:100D0000210E0D0600090946236668C1E3C9360DA8
:100D1000390D3414F00B23142E147B0DF90BFE0B3C
:100D2000070C460C530CA90C3C0CB00CB90C300F42
:100D3000660FDC0F930EC37B003100EF3A7DEFB7F7
:100D40002806217EEFCD640E3A6DEFB72806216E9E
:100D5000EFCD640E3A71EFB728062172EFCD640E25
:100D60003A79EFB72806217AEFCD700E3A75EFB7D2
:100D700028062176EFCD700EC33A0EAFC9F5ED5FB0
:100D80003255EFED573254EF2242EFED5340EFED85
:100D9000433EEFE1223CEF08F5D9224AEFED5348FC
:100DA000EFED4346EFE12244EFDD224CEFFD224E12
:100DB000EFE12B2252EFED7350EF3100EFAF575FB1
:100DC0003A7DEFB7280911810E217EEFCD640E3AEE
:100DD0006DEFB72809118A0E216EEFCD640E3A71BE
:100DE000EFB72809118A0E2172EFCD640E3A79EF20
:100DF000B7280911810E217AEFCD700E3A75EFB741
:100E0000280911810E2176EFCD700E7AB3200311DF
:100E1000770E1AFE542809EBCDF00BCD640B181A8F
:100E20003A66EFFE462807EBCDF00BCD640BCD2ED6
:100E3000142813CD2314FE03200CAF326CEF676F20
:100E40002268EFC324013A6CEFB7C25B0E2A68EF49
:100E50002B2268EF7DB42003C324012A52EF226ABB
:100E6000EFC36504E57E234E234602E1AF2B77C92D
:100E70007E234E234602C9525354203338480D0A6C
:100E800000427265616B210D0A0054726163652135
:100E90000D0A00F5E5FE00280FFE012814FE0228C9
:100EA00016FE032850E1F1C92100F83E9077E1F1E8
:100EB000C92100F83E10773A10F83256EF3A11F88F
:100EC0003257EF01E1872A56EF7CB52006ED4356F5
:100ED000EF1805ED422256EF3A20F83258EF3A214A
:100EE000F83259EF2A56EFCD140FED435AEFED5B70
:100EF00058EFE1F1C9AF676F225AEF2258EF22563F
:100F0000EF3220F83221F83EE83210F83E863211F6
:100F1000F8E1F1C9AF474F2A56EF7DFE1F3806D6DC
:100F20001F6F0318F67CB7C87DD61FED442518F156
:100F3000F5C5D5E5DDE5E5DDE1EBE521050019AF1A
:100F400077EBE10101003E0ACD660FF6301B120C73
:100F50007CB520F279FE062806DDE5E1EBEDB0DD9B
:100F6000E1E1D1C1F1C9C5D54F060FAF29179138BD
:100F70000D292C1791380C292C10F8C3870F29172D
:100F80008138F42910F981D1C1C9225CEFED535E9B
:100F9000EFAF3260EF3261EF3262EF3263EF061093
:100FA0002160EFCB2623CB16215CEFCB2623CB167B
:100FB0002162EFCB1623CB162A5EEF5D542A62EF37
:100FC000AFED523002180B2262EF3A60EFF60132B9
:100FD00060EF10CC2A60EFED5B62EFC9F5C5B71882
:100FE00004CB21CB101F30F90920F6C1F1C93F20F5
:100FF0003A20436F6D6D616E642048656C700D0A18
:10100000445B616464725D203A2044756D70204DCC
:10101000656D6F7279205B616464725D0D0A535B6C
:10102000616464725D203A20536574204D656D6F74
:101030007279205B616464725D0D0A525B72656750
:101040005D203A20536574206F722044756D7020C6
:101050005B7265675D0D0A475B616464725D5B2C62
:1010600073746F7020616464725D203A20476F2052
:10107000616E642053746F70207370656369666974
:10108000656420616464726573730D0A4C203A20B4
:101090004C6F6164204865782046696C650D0A5084
:1010A0005B497C535D203A20536176652048657822
:1010B0002046696C652028493A496E74656C2C207D
:1010C000533A4D6F746F726F6C610D0A234C7C4EF6
:1010D000756D626572203A204C61756E6368207090
:1010E000726F6772616D0D0A425B317C325B2C421C
:1010F0005020616464725D5D203A20536574204223
:101100007265616B20506F696E740D0A42435B31EA
:101110007C325D203A20436C6561722042726561C9
:101120006B20506F696E740D0A545B616464725D6C
:101130005B2C73746570737C2D315D203A20547282
:1011400061636520636F6D6D616E640D0A54505B61
:101150004F4E7C4F46465D203A20547261636520B5
:101160005072696E74204D6F64650D0A544D5B4971
:101170007C535D203A205472616365204F7074691E
:101180006F6E20666F722043414C4C0D0A000D0AB1
:10119000454D555A3830204D4F4E49544F522052EC
:1011A00065762E4230310D0A54686973206D6F6E7A
:1011B00069746F72206973206261736564206F6E59
:1011C00020756E696D6F6E2E0D0A005D20004572F0
:1011D000726F7220696865780D0A004572726F72CD
:1011E00020737265630D0A004572726F720D0A00FA
:1011F000203A00203A20003A303030303030303160
:1012000046460D0A00533930333030303046430DF6
:101210000A0067123DEF016B123EEF02711240EFC0
:1012200002771242EF027D123CEF0182124CEF0274
:1012300087124EEF028C1245EF01921246EF029890
:101240001248EF029E124AEF02A41244EF01A912C3
:1012500050EF02AE1252EF02B31254EF01B7125523
:10126000EF01000000000041203D00204243203DEE
:1012700000204445203D0020484C203D00204620D1
:101280003D002049583D002049593D000D0A4127A5
:101290003D00204243273D00204445273D00204893
:1012A0004C273D002046273D002053503D00205054
:1012B000433D0020493D0020523D00410F051300F1
:1012C00000420F13130000430F35130000440F4377
:1012D000130000450F65130000460F73130000480C
:1012E0000F81130000490FB11300004C0FA313002E
:1012F00000500FC5130000520155EF2014530FCDBD
:10130000130000000000013DEFD513270145EFEE6B
:1013100013000000013FEFDA13270147EFF51343F5
:101320000F27130000000000023EEFD713270246EC
:10133000EFF113000000013EEFDC13270146EFF848
:10134000130000000141EFE113270149EFFF1345AE
:101350000F571300000000000240EFDE1327024881
:10136000EFFB130000000140EFE313270148EF02F9
:1013700014000000013CEFEC13270144EF0F1400B0
:1013800000000143EFE81327014BEF09144C0F95C0
:101390001300000000000242EFE51327024AEF05A8
:1013A000140000000142EFEA1327014AEF0C140079
:1013B00000000154EF1E1458024CEF121459024E53
:1013C000EF15140000430252EF1B140000500250AE
:1013D000EF1814000041004243004200430044451E
:1013E0000044004500484C0048004C00460041279E
:1013F000004243270042270043270044452700447A
:101400002700452700484C27004827004C27004666
:1014100027004958004959005350005043004900E3
:101420005200C93A01FFCB4728F93A00FFC93A01F7
:10143000FFCB47C9F53A01FFCB4F28F9F13200FF46
:10144000C9FFFFFFFFFFFFFFFFFFFFFFFFFFFFFFE2
:10145000FFFFFFFFFFFFFFFFFFFFFFFFFFFFFFFF9C
:10146000FFFFFFFFFFFFFFFFFFFFFFFFFFFFFFFF8C
:10147000FFFFFFFFFFFFFFFFFFFFFFFFFFFFFFFF7C
:10148000FFFFFFFFFFFFFFFFFFFFFFFFFFFFFFFF6C
:10200000C30620C37B20C30D20BC2832302145C02D
:10201000F9C3463C11E52206632145C01A77231314
:1020200005C21C20F9CDE624CDB22A32EFC0323EE3
:10203000C121A2C1237CB5CA43207E472F77BE7041
:10204000CA34202B11A1C1CD7C26DA842011CEFF09
:1020500022F4C019229FC0CDC1242A9FC011EFFFD6
:1020600019113EC17D936F7C9A67E5219C20CD506C
:1020700031E1CDF337218D20CD503131ABC0CDE6EC
:1020800024C3FF2321D320CD5031C38A202042799D
:1020900074657320667265650D0A00005A38302039
:1020A00042415349432056657220342E37620D0A4F
:1020B000436F707972696768742028432920313929
:1020C0003738206279204D6963726F736F66740DC3
:1020D0000A00004D656D6F72792073697A65206E14
:1020E0006F7420656E6F7567680D0A54686520739C
:1020F000797374656D2069732073746F7070656493
:102100002E0D0A000068362C377E3648C0103095F8
:10211000333E30F238D1390D354039463A4C3AAD7C
:102120003AC23AE9332C3B96C0C232DA305C33D142
:1021300032E2324E3BE13BF23222332C33C54E4485
:10214000C64F52CE455854C4415441C94E505554BF
:10215000C4494DD2454144CC4554C74F544FD25544
:102160004EC946D24553544F5245C74F535542D29C
:10217000455455524ED2454DD3544F50CF5554CF60
:102180004ECE554C4CD7414954C44546D04F4B4593
:10219000C44F4B45D3435245454ECC494E4553C39E
:1021A0004C53D749445448CD4F4E49544F52D345D0
:1021B00054D245534554D052494E54C34F4E54CC3B
:1021C000495354C34C454152C34C4F4144C35341FE
:1021D0005645CE4557D4414228D44FC64ED35043DE
:1021E00028D448454ECE4F54D3544550ABADAAAF3A
:1021F000DEC14E44CF52BEBDBCD3474EC94E54C1C2
:102200004253D55352C65245C94E50D04F53D35165
:1022100052D24E44CC4F47C55850C34F53D3494E6A
:10222000D4414EC1544ED045454BC445454BD04F8B
:10223000494E54CC454ED3545224D6414CC15343FD
:10224000C3485224C8455824C2494E24CC4546545C
:1022500024D24947485424CD494424805428512746
:102260002C2CA129332B682E622BB8295E294129F9
:10227000302A1A284D297C29A3295228A133122A51
:102280009328A7334630F033373BA3291D3B113B3E
:10229000153B433C99C09CC0542A8028C626FB2885
:1022A000A329A329C02479DA37790E347C4C357CF4
:1022B000AD357FFB3850C12D46C02D4E46534E5292
:1022C000474F4446434F564F4D554C425344442F7D
:1022D000304944544D4F534C535354434E55464D3F
:1022E0004F4858424EC37B20C3D128D300C9D600E3
:1022F0006F7CDE006778DE00473E00C900000035D5
:102300004ACA99391C76982295B3980ADD479853A2
:10231000D199990A1A9F9865BCCD98D6773E985264
:10232000C74F80DB00C901FF1C000014001400002F
:10233000000000C3F925C30000C30000C30000A2D1
:10234000C1FEFF3FC1204572726F720020696E208E
:10235000004F6B0D0A0000427265616B00210400A2
:10236000397E23FE81C04E234623E569607AB3EBB4
:10237000CA7723EBCD7C26010D00E1C809C3612398
:10238000CD9A23C5E3C1CD7C267E02C80B2BC38624
:1023900023E52A1FC1060009093EE53ED0956F3EA0
:1023A000FF9CDAA9236739E1D81E0CC3C8232A0E83
:1023B000C122A1C01E02011E14011E00011E120135
:1023C0001E22011E0A011E18CDE624328AC0CDA5A8
:1023D0002A21BB22573E3FCD8D26197ECD8D26CD9D
:1023E0000A28CD8D26214523CD50312AA1C011FECA
:1023F000FFCD7C26CA0D207CA53CC4EB373EC1AF87
:10240000328AC0CDA52A215123CD503121FFFF2290
:10241000A1C0CDF925DA0C24CD0A283C3DCA0C24F4
:10242000F5CDD628D5CD102547D1F1D2EA27D5C58F
:10243000AF3211C1CD0A28B7F5CDA024DA4524F179
:10244000F5CA7729B7C5D25C24EB2A1BC11A02034F
:1024500013CD7C26C24D246069221BC1D1F1CA83F1
:10246000242A1BC1E3C109E5CD8023E1221BC1EB76
:1024700074D123237323722311A6C01A772313B7B1
:10248000C27B24CDCC2423EB626B7E23B6CA0C2402
:10249000232323AFBE23C29424EB732372C3882467
:1024A0002AA3C0444D7E23B62BC823237E23666F08
:1024B000CD7C2660697E23666F3FC83FD0C3A324CE
:1024C000C02AA3C0AF77237723221BC12AA3C02B26
:1024D0002213C12AF4C02208C1AFCD1A282A1BC179
:1024E000221DC1221FC1C12A9FC0F921F8C022F6B6
:1024F000C0AF6F672219C13210C12223C1E5C52ABE
:1025000013C1C93E3FCD8D263E20CD8D26C393C03D
:10251000AF32F3C00E0511A6C07EFE20CA98254733
:10252000FE22CAB825B7CABF253AF3C0B77EC29803
:1025300025FE3F3E9ECA98257EFE30DA4325FE3CAE
:10254000DA9825D5113C21C5019425C5067F7EFE6C
:1025500061DA5C25FE7BD25C25E65F774EEB23B625
:10256000F25E25047EE67FC8B9C25E25EBE5131A4C
:10257000B7FA90254F78FE88C27F25CD0A282B23F5
:102580007EFE61DA8825E65FB9CA6E25E1C35C2567
:1025900048F1EBC9EB79C1D12312130CD63ACAA684
:1025A00025FE49C2A92532F3C0D654C21925477E5B
:1025B000B7CABF25B8CA982523120C13C3AF25216B
:1025C000A5C01213121312C93A89C0B73E0032894E
:1025D000C0C2DC2505CAF925CD8D263E052BCAF0E3
:1025E000257ECD8D26C30226052BCD8D26C2022643
:1025F000CD8D26CDB22AC3F92521A6C00601AF3262
:1026000089C0CDB5264FFE7FCAC8253A89C0B7CA52
:102610001B263E00CD8D26AF3289C079FE07CA5FEA
:1026200026FE03CCB22A37C8FE0DCAAD2AFE15CA53
:10263000F325FE40CAF025FE5FCAE825FE08CAE879
:1026400025FE12C25A26C5D5E53600CD553C21A639
:10265000C0CD5031E1D1C1C30226FE20DA02267876
:10266000FE493E07D2742679713211C12304CD8D03
:1026700026C30226CD8D263E08C36E267C92C07DE1
:1026800093C97EE3BE23E3CA0A28C3B423F53A8A7A
:10269000C0B7C28531F1C5F5FE20DAB1263A87C050
:1026A000473AF0C004CAAD2605B8CCB22A3C32F095
:1026B000C0F1C1CFC9CD0F3BE67FFE0FC03A8AC043
:1026C0002F328AC0AFC9CDD628C0C1CDA024C5CD78
:1026D0001C27E14E23462378B1CAFF23CD2527CD01
:1026E0003528C5CDB22A5E235623E5EBCDF3373E20
:1026F00020E1CD8D267EB723CAD226F2F226D67FE0
:102700004F113D211A13B7F204270DC20427E67FAB
:10271000CD8D261A13B7F20E27C3F526E52A8DC0F4
:10272000228BC0E1C9E5D52A8BC011FFFFED5A22EB
:102730008BC0D1E1F0E52A8DC0228BC0CD0F3BFECE
:1027400003CA4827E1C325272A8DC0228BC0C37E38
:10275000203E643210C1CDB829C1E5CDA129220C9B
:10276000C121020039CD6123D1C2812709D52B5661
:102770002B5E2323E52A0CC1CD7C26E1C26527D13F
:10278000F9EB0E08CD9123E52A0CC1E3E52AA1C09F
:10279000E3CD7A2CCD8226A6CD772CE5CDA536E1EA
:1027A000C5D5010081515A7EFEAB3E01C2BD27CD89
:1027B0000A28CD772CE5CDA536CD5936E1C5D5F51E
:1027C00033E52A13C1E30681C533CD35282213C171
:1027D0007EFE3ACAEA27B7C2B423237E23B6CA5C78
:1027E00028235E2356EB22A1C0EBCD0A2811CA276D
:1027F000D5C8D680DAB829FE25D2B423074F060003
:10280000EB215C22094E2346C5EB237EFE3AD0FE27
:1028100020CA0A28FE303F3C3DC9EB2AA3C0CA2F7C
:1028200028EBCDD628E5CDA0246069D1D277292B1D
:102830002221C1EBC9DFC8D7FE1B2811FE03280DDA
:10284000FE13C0D7FE11C8FE03280718F63EFF325C
:1028500092C0C0F6C02213C121F6FFC12AA1C0F563
:102860007DA43CCA6F282217C12A13C12219C1AF07
:10287000328AC0CDA52AF1215723C2E823C3FF2302
:102880002A19C17CB51E20CAC823EB2A17C122A170
:10289000C0EBC9CDD833C03286C0C9E52A8FC00687
:1028A000004F09228FC0E1C97EFE41D8FE5B3FC9BF
:1028B000CD0A28CD772CCD5936FAD1283A2CC1FE35
:1028C00090DA0137018090110000E5CDD436E15156
:1028D000C81E08C3C8232B110000CD0A28D0E5F577
:1028E000219819CD7C26DAB423626B19291929F1B4
:1028F000D6305F160019EBE1C3DA28CAD024CDB375
:10290000282BCD0A28E52AF4C0CA1E29E1CD82264B
:102910002CD5CDB3282BCD0A28C2B423E3EB7D936D
:102920005F7C9A57DAA923E52A1BC101280009CD4B
:102930007C26D2A923EB229FC0E122F4C0E1C3D0C0
:1029400024CACC24CDD02401CA27C35D290E03CDCF
:102950009123C1E5E52AA1C0E33E8CF533C5CDD670
:1029600028CDA329E52AA1C0CD7C26E123DCA32420
:10297000D4A02460692BD81E0EC3C823C016FFCD77
:102980005D23F9FE8C1E04C2C823E122A1C0237C72
:10299000B5C29B293A11C1B7C2FE2321CA27E33E23
:1029A000E1013A0E0006007948477EB7C8B8C8234F
:1029B000FE22CAA729C3AA29CD6D2ECD8226B4D561
:1029C0003AF2C0F5CD892CF1E32213C11FCD7C2C46
:1029D000CA0B2AE52A29C1E523235E23562AA3C070
:1029E000CD7C26D2FA292A9FC0CD7C26D1D2022ABC
:1029F0002104C1CD7C26D2022A3ED1CDB132EBCD0D
:102A0000EA30CDB132E1CDB436E1C9E5CDB136D150
:102A1000E1C9CDD8337E47FE8CCA212ACD822688D3
:102A20002B4B0D78CAF227CDD728FE2CC0C3222A03
:102A3000CD892C7EFE88CA3E2ACD8226A92BCD7A4E
:102A40002CCD5936CAA329CD0A28DA5E29C3F1272D
:102A50002BCD0A28CAB22AC8FEA5CAE52AFEA8CAF2
:102A6000E52AE5FE2CCACE2AFE3BCA082BC1CD8939
:102A70002CE53AF2C0B7C29E2ACDFE37CD0E3136D4
:102A8000202A29C1342A29C13A87C04704CA9A2A70
:102A9000043AF0C0863DB8D4B22ACD5331AFC45306
:102AA00031E1C3502A3AF0C0B7C8C3B22A36002178
:102AB000A5C03E0DCD8D263E0ACD8D26AF32F0C08D
:102AC0003A86C03DC8F5AFCD8D26F1C3C32A3A88FA
:102AD000C0473AF0C0B8D4B22AD2082BD60ED2DC06
:102AE0002A2FC3FD2AF5CDD533CD8226292BF1D649
:102AF000A8E5CAF82A3AF0C02F83D2082B3C473EFB
:102B000020CD8D2605C2012BE1CD0A28C3572A3FCF
:102B10005265646F2066726F6D2073746172740DFC
:102B20000A003A12C1B7C2AE23C1210F2BCD5031DA
:102B3000C3FF24CDBB307EFE223E00328AC0C24D90
:102B40002BCD0F31CD82263BE5CD53313EE5CD0374
:102B500025C1DA5928237EB72BC5CAA029362CC334
:102B6000672BE52A21C1F6AF3212C1E3C3732BCD27
:102B700082262CCD6D2EE3D57EFE2CCA9B2B3A12DD
:102B8000C1B7C2082C3E3FCD8D26CD0325D1C1DA79
:102B90005928237EB72BC5CAA029D53AF2C0B7CA97
:102BA000C52BCD0A285747FE22CAB92B3A12C1B706
:102BB00057CAB62B163A062C2BCD1231EB21D02B4F
:102BC000E3D5C3D329CD0A28CD6037E3CDB136E1B3
:102BD0002BCD0A28CADC2BFE2CC2222BE32BCD0ADC
:102BE00028C26F2BD13A12C1B7EBC23028D5B6211B
:102BF000F72BC45031E1C93F457874726120696791
:102C00006E6F7265640D0A00CDA129B7C2212C2315
:102C10007E23B61E06CAC823235E2356EB220EC1AE
:102C2000EBCD0A28FE83C2082CC39B2B110000C4E5
:102C30006D2E2213C1CD5D23C2BA23F9D57E23F5B3
:102C4000D5CD9736E3E5CD0434E1CDB136E1CDA85D
:102C500036E5CDD436E1C190CDA836CA672CEB223B
:102C6000A1C06960C3C627F92A13C17EFE2CC2CA5F
:102C700027CD0A28CD2F2CCD892CF6373AF2C08FDC
:102C8000B7E8C3C623CD8226282B1600D50E01CD6A
:102C90009123CD002D2215C12A15C1C178FE78D40B
:102CA0007A2C7E1600D6B3DAC12CFE03D2C12CFEDC
:102CB0000117AABA57DAB423220AC1CD0A28C3A53C
:102CC0002C7AB7C2E82D7E220AC1D6ACD8FE07D036
:102CD0005F3AF2C03DB37BCA463207835F21A6222A
:102CE000197856BAD023CD7A2CC501982CC5434A01
:102CF000CD8A3658514E234623C52A0AC1C38C2C8F
:102D0000AF32F2C0CD0A281E24CAC823DA6037CDFC
:102D1000A828D2672DFE262012CD0A28FE48CAA375
:102D20003BFE42CA133C1E02CAC823FEACCA002D99
:102D3000FE2ECA6037FEADCA562DFE22CA0F31FEE6
:102D4000AACA482EFEA7CA7330D6B6D2782DCD8532
:102D50002CCD822629C9167DCD8C2C2A15C1E5CD16
:102D60008236CD7A2CE1C9CD6D2EE5EB2229C13A10
:102D7000F2C0B7CC9736E1C90600074FC5CD0A2887
:102D800079FE31DA9F2DCD852CCD82262CCD7B2C62
:102D9000EB2A29C1E3E5EBCDD833EBE3C3A72DCD77
:102DA0004E2DE311622DD5010521094E236669E9F7
:102DB00015FEADC8FE2DC814FE2BC8FEACC82BC92D
:102DC000F6AFF5CD7A2CCDBC28F1EBC1E3EBCD9A73
:102DD00036F5CDBC28F1C179213130C2E32DA34FA6
:102DE00078A2E9B34F78B2E921FA2D3AF2C01F7AFE
:102DF000175F166478BAD0C3E92CFC2D79B71FC1D0
:102E0000D1F5CD7C2C213E2EE5CAD436AF32F2C0AE
:102E1000D5CD93327E23234E2346D1C5F5CD9732AF
:102E2000CDA836F157E17BB2C87AD601D8AFBB3C0A
:102E3000D0151D0ABE2303CA262E3FC364363C8F1D
:102E4000C1A0C6FF9FC36B36165ACD8C2CCD7A2CF1
:102E5000CDBC287B2F4F7A2FCD3130C1C3982C2B7E
:102E6000CD0A28C8CD82262C015F2EC5F6AF32F1DF
:102E7000C046CDA828DAB423AF4F32F2C0CD0A281D
:102E8000DA892ECDA828DA962E4FCD0A28DA8A2E96
:102E9000CDA828D28A2ED624C2A52E3C32F2C00F4D
:102EA000814FCD0A283A10C13DCA522FF2B52E7E6D
:102EB000D628CA2A2FAF3210C1E550592A23C1CDD6
:102EC0007C261125C1CA9A352A1DC1EB2A1BC1CD0A
:102ED0007C26CAE82E799623C2DD2E789623CA1C5A
:102EE0002F23232323C3CF2EE1E3D5116A2DCD7CDD
:102EF00026D1CA1F2FE3E5C50106002A1FC1E50937
:102F0000C1E5CD8023E1221FC16069221DC12B369E
:102F100000CD7C26C20E2FD173237223EBE1C93280
:102F20002CC12150232229C1E1C9E52AF1C0E35770
:102F3000D5C5CDB028C1F1EBE3E5EB3C577EFE2CC7
:102F4000CA302FCD8226292215C1E122F1C01E00F0
:102F5000D511E5F52A1DC13E19EB2A1FC1EBCD7C29
:102F600026CA8A2F7EB923C26C2F7EB8235E2356D1
:102F700023C2582F3AF1C0B7C2BD23F1444DCA9ABB
:102F80003596CAE82F1E10C3C823110400F1CAD118
:102F900028712370234FCD91232323220AC171234B
:102FA0003AF1C01779010B00D2AD2FC10371237024
:102FB00023F5E5CD4537EBE1F13DC2A52FF5424BB9
:102FC000EB19DAA923CD9A23221FC12B3600CD7C21
:102FD00026C2CB2F03572A0AC15EEB2909EB2B2B04
:102FE00073237223F1DA0C30474F7E2316E15E2300
:102FF0005623E3F5CD7C26D2852FE5CD4537D11973
:10300000F13D444DC2ED2F2929C109EB2A15C1C953
:103010002A1FC1EB210000393AF2C0B7CA2C30CDCB
:103020009332CD93312A9FC0EB2A08C17D934F7C08
:103030009A41501E0021F2C0730690C370363AF0D8
:10304000C047AFC33230CDC930CDBB3001A129C597
:10305000D5CD822628CD6D2EE5EB2B562B5EE1CD0E
:103060007A2CCD822629CD8226B4444DE37123707B
:10307000C30831CDC930D5CD4E2DCD7A2CE35E239A
:1030800056237AB3CAC0237E23666FE52A23C1E3A1
:103090002223C12A27C1E52A25C1E52125C1D5CD95
:1030A000B136E1CD772C2BCD0A28C2B423E12225FD
:1030B000C1E12227C1E12223C1E1C9E52AA1C02340
:1030C0007CB5E1C01E16C3C823CD8226A73E803240
:1030D00010C1B647CD722EC37A2CCD7A2CCDFE37D7
:1030E000CD0E31CD933201EE32C57E2323E5CD697D
:1030F00031E14E2346CD0231E56FCD8632D1C9CDC7
:1031000069312104C1E5772323732372E1C92B06BA
:103110002250E50EFF237E0CB7CA2431BACA2431EF
:10312000B8C21531FE22CC0A28E323EB79CD023157
:103130001104C12AF6C02229C13E0132F2C0CDB429
:1031400036CD7C2622F6C0E17EC01E1EC3C82323D6
:10315000CD0E31CD9332CDA8361C1DC80ACD8D269B
:10316000FE0DCCBC2A03C35A31B70EF1F52A9FC01D
:10317000EB2A08C12F4F06FF0923CD7C26DA8731C1
:103180002208C123EBF1C9F11E1ACAC823BFF501F9
:103190006B31C52AF4C02208C1210000E52A9FC076
:1031A000E521F8C0EB2AF6C0EBCD7C2601A431C2A4
:1031B000F8312A1BC1EB2A1DC1EBCD7C26CACB31CD
:1031C0007E2323B7CDFB31C3B531C1EB2A1FC1EB41
:1031D000CD7C26CA2132CDA8367BE509B7F2CA31AB
:1031E000220AC1E14E0600090923EB2A0AC1EBCDF0
:1031F0007C26CACB3101EA31C5F6807E23235E23CB
:103200005623F0B7C8444D2A08C1CD7C266069D842
:10321000E1E3CD7C26E3E56069D0C1F1F1E5D5C5F8
:10322000C9D1E17DB4C82B462B4EE52B2B6E260071
:103230000950592B444D2A08C1CD8323E1712370D5
:1032400069602BC39631C5E52A29C1E3CD002DE382
:10325000CD7B2C7EE52A29C1E5861E1CDAC823CD4C
:10326000FF30D1CD9732E3CD9632E52A06C1EBCDC2
:103270007D32CD7D3221952CE3E5C33031E1E37E13
:1032800023234E23466F2C2DC80A120313C3873203
:10329000CD7B2C2A29C1EBCDB132EBC0D550591BC7
:1032A0004E2A08C1CD7C26C2AF3247092208C1E1AF
:1032B000C92AF6C02B462B4E2B2BCD7C26C022F6DE
:1032C000C0C9014130C5CD9032AF5732F2C07EB790
:1032D000C9014130C5CDC632CAD12823235E235649
:1032E0001AC93E01CDFF30CDDB332A06C173C1C3FD
:1032F0003031CD8B33AFE34FE57EB8DA0033781150
:103300000E00C5CD6931C1E1E52323462366680679
:103310000009444DCD02316FCD8632D1CD9732C3F5
:103320003031CD8B33D1D51A90C3F632EB7ECD90B0
:10333000330405CAD128C51EFFFE29CA4533CD82F4
:10334000262CCDD833CD822629F1E301F832C53DB4
:10335000BE0600D04F7E91BB47D843C9CDC632CA06
:1033600079345F23237E23666FE5194672E3C57EB9
:10337000FE24C27A33CDA33B180DFE25C28433CD83
:10338000133C1803CD6037C1E170C9EBCD8226290B
:10339000C1D1C543C9CDDB333284C0CD83C0C34165
:1033A00030CDC533C34BC0CDC533F51E002BCD0A80
:1033B00028CABB33CD82262CCDD833C1CD83C0AB38
:1033C000A0CABC33C9CDD8333284C0324CC0CD8200
:1033D000262CC3D833CD0A28CD772CCDB6287AB782
:1033E000C2D1282BCD0A287BC9CDBC281AC34130B5
:1033F000CD772CCDBC28D5CD82262CCDD833D1127B
:10340000C921D738CDA836C31334CDA83621C1D1B0
:10341000CD823678B7C83A2CC1B7CA9A3690D22D29
:10342000342F3CEBCD8A36EBCD9A36C1D1FE19D084
:10343000F5CDBF3667F1CDD834B42129C1F253346C
:10344000CDB834D299342334CAC3232E01CDEE34FF
:10345000C39934AF90477E9B5F237E9A57237E9912
:103460004FDCC4346863AF4779B7C286344A5465C9
:103470006F78D608FEE0C26734AF322CC1C9052987
:103480007A1757798F4FF27E34785C45B7CA9934F2
:10349000212CC18677D27934C878212CC1B7FCABF6
:1034A0003446237EE680A94FC39A361CC014C00C54
:1034B000C00E8034C0C3C3237E835F237E8A57231C
:1034C0007E894FC9212DC17E2F77AF6F90477D9B9D
:1034D0005F7D9A577D994FC90600D608DAE73443D5
:1034E0005A510E00C3DA34C6096FAF2DC8791F4F89
:1034F0007A1F577B1F5F781F47C3EA3400000081A3
:1035000003AA561980F122768045AA3882CD593611
:10351000B7EAD128212CC17E01358011F30490F542
:1035200070D5C5CD1334C1D104CDAF3521FC34CD18
:103530000A34210035CDA139018080110000CD135E
:1035400034F1CDD43701318011187221C1D1CD5958
:1035500036C82E00CD173679323BC1EB223CC10173
:1035600000005058216434E5217035E5E52129C17A
:103570007E23B7CA9C35E52E081F6779D28A35E5C8
:103580002A3CC119EBE13A3BC1891F4F7A1F577B97
:103590001F5F781F472D7CC27935E1C9435A514FCF
:1035A000C9CD8A36012084110000CD9A36C1D1CD13
:1035B0005936CAB7232EFFCD173634342B7E3257F7
:1035C000C02B7E3253C02B7E324FC041EBAF4F57E2
:1035D0005F325AC0E5C57DCD4EC0DE003FD2E73533
:1035E000325AC0F1F137D2C1E1793C3D1FFA9A3429
:1035F000177B175F7A175779174F297817473A5A69
:10360000C017325AC079B2B3C2D435E5212CC135C6
:10361000E1C2D435C3C32378B7CA3B367D212CC160
:10362000AE80471FA878F23A36C68077CA9A35CD61
:10363000BF36772BC9CD59362FE1B7E1F27934C3C4
:10364000C323CDA53678B7C8C602DAC32347CD1346
:1036500034212CC134C0C3C3233A2CC1B7C83A2B80
:10366000C1FE2F179FC03CC9CD59360688110000F6
:10367000212CC14F70060023368017C36134CD5909
:1036800036F0212BC17EEE8077C9EB2A29C1E3E514
:103690002A2BC1E3E5EBC9CDA836EB2229C160692D
:1036A000222BC1EBC92129C15E2356234E23462379
:1036B000C91129C106041A77132305C2B636C921D8
:1036C0002BC17E07371F773F1F2323777907371FCB
:1036D0004F1FAEC978B7CA5936216236E5CD593683
:1036E00079C8212BC1AE79F8CDEE361FA9C9237850
:1036F000BEC02B79BEC02B7ABEC02B7B96C0E1E149
:10370000C9474F575FB7C8E5CDA536CDBF36AE67C1
:10371000FC25373E9890CDD8347C17DCAB340600BE
:10372000DCC434E1C91B7AA33CC00BC9212CC17E87
:10373000FE983A29C1D07ECD013736987BF57917AE
:10374000CD6134F1C921000078B1C83E1029DA8575
:103750002FEB29EBD25B3709DA852F3DC24D37C9F4
:10376000FE2DF5CA6C37FE2BCA6C372BCD7934474A
:10377000575F2F4FCD0A28DABD37FE2ECA9837FE85
:1037800045C29C37CD0A28CDB02DCD0A28DADF37C7
:1037900014C29C37AF935F0C0CCA7437E57B90F46E
:1037A000B537F2AB37F5CDA135F13CC29F37D1F13A
:1037B000CC8236EBC9C8F5CD4236F13DC9D5577834
:1037C0008947C5E5D5CD4236F1D630CDD437E1C1F4
:1037D000D1C37437CD8A36CD6B36C1D1C313347B98
:1037E0000707830786D6305FC38A37E5214C23CD90
:1037F0005031E1EBAF0698CD7036214F31E5212EE7
:10380000C1E5CD59363620F20C38362D233630CA74
:10381000C238E5FC8236AFF5CDC83801439111F8C6
:103820004FCDD436B7E23938F1CDB637F5C31B38B2
:10383000CDA135F13CF5CDC838CD01343CCD0137B3
:10384000CD9A36010603F1813CFA5538FE08D2556F
:10385000383C473E023D3DE1F511DB3805C2663894
:10386000362E2336302305362ECCAF36C5E5D5CDE2
:10387000A536E1062F047B965F237A9E5723799E17
:103880004F2B2BD27538CDB83423CD9A36EBE1705F
:1038900023C10DC2663805CAA6382B7EFE30CA9AEF
:1038A00038FE2EC4AF36F1CAC538364523362BF262
:1038B000B638362D2F3C062F04D60AD2B838C63A71
:1038C000237023772371E1C901749411F723CDD4B8
:1038D00036B7E1E23038E900000080A08601102709
:1038E00000E803006400000A0000010000218236A5
:1038F000E3E9CD8A3621D738CD9736C1D1CD5936B7
:1039000078CA4039F20B39B7CAB723B7CA7A34D567
:10391000C579F67FCDA536F22839D5C5CD2C37C16E
:10392000D1F5CDD436E17C1FE1222BC1E12229C1A2
:10393000DCED38CC8236D5C5CD0D35C1D1CD4E3577
:10394000CD8A36013881113BAACD4E353A2CC1FEC5
:1039500088D23536CD2C37C680C602DA3536F52109
:10396000FC34CD0434CD4535F1C1D1F5CD1034CD85
:103970008236218039CDB039110000C14AC34E359D
:1039800008402E9474704F2E776E02887AE6A02A33
:103990007C50AAAA7EFFFF7F7F000080810000008C
:1039A00081CD8A36114C35D5E5CDA536CD4E35E1E4
:1039B000CD8A367E23CD973606F1C1D13DC8D5C517
:1039C000F5E5CD4E35E1CDA836E5CD1334E1C3B9EB
:1039D00039CD5936215EC0FA323A217FC0CD9736B3
:1039E000215EC0C886E6070600772387874F09CD8A
:1039F000A836CD4E353A5DC03CE6030600FE018890
:103A0000325DC021363A87874F09CD0434CDA536C3
:103A10007B59EE4F4F36802B463680215CC0347E7A
:103A2000D6ABC2293A770C151CCD6434217FC0C3B4
:103A3000B136772B772B77C30D3A68B1466899E991
:103A4000926910D1756821903ACD0434CD8A36013F
:103A5000498311DB0FCD9A36C1D1CDAF35CD8A3632
:103A6000CD2C37C1D1CD103421943ACD0A34CD5963
:103A70003637F27C3ACD0134CD5936B7F5F482367B
:103A800021943ACD0434F1D4823621983AC3A13935
:103A9000DB0F49810000007F05BAD71E8664269996
:103AA0008758342387E05DA586DA0F4983CD8A36AF
:103AB000CD4C3AC1E1CD8A36EBCD9A36CD463AC3EC
:103AC000AD35CD5936FCED38FC82363A2CC1FE813D
:103AD000DADF3A0100815159CDAF35210A34E521B1
:103AE000E93ACDA13921903AC9094AD73B78026E0B
:103AF000847BFEC12F7C74319A7D843D5A7DC87FC2
:103B0000917EE4BB4C7E6CAAAA7F00000081C9D7DD
:103B1000C93E0CCFC9CDD8337B3287C0C9CD772CF5
:103B2000CDBC28ED538BC0ED538DC0C9CDBC28D57D
:103B3000E146237EC33230CD772CCDBC28D5CD8253
:103B4000262CCD772CCDBC28E3732372E1C9CD7A26
:103B50002CCDBC28C5212EC17AFE00280CCD863B79
:103B600078FE302802702371237BCD863B7AFE00DD
:103B7000200578FE30280270237123AF772377C1A8
:103B8000212EC1C3E03047E60FFE0A3802C607C641
:103B9000304F780F0F0F0FE60FFE0A3802C607C628
:103BA0003047C9EB210000CDBC3BDADC3B1805CD2A
:103BB000BC3B381F29292929B56F18F3131AFE2099
:103BC000CABC3BD630D8FE0A3805D607FE0AD8FE56
:103BD000103FC9EB7A4BE5CD3130E1C91E26C3C891
:103BE00023CD7A2CCDBC28C5212EC106110578FE27
:103BF000012808CB13CB1230F41804CB13CB123EA0
:103C000030CE0077230520F3AF772377C1212EC173
:103C1000C3E030EB210000CD303CDA3E3CD6302909
:103C2000B56FCD303C30F6EB7A4BE5CD3130E1C9A4
:103C3000131AFE20CA303CFE30D8FE323FC91E287F
:103C4000C3C823C300003E003292C0C31420F5A0B5
:103C5000C1B83E00C9CD8D26C3B22AFFFFFFFFFFCA
:103C6000FFFFFFFFFFFFFFFFFFFFFFFFFFFFFFFF64
:103C7000FFFFFFFFFFFFFFFFFFFFFFFFFFFFFFFF54
:103C8000FFFFFFFFFFFFFFFFFFFFFFFFFFFFFFFF44
:103C9000FFFFFFFFFFFFFFFFFFFFFFFFFFFFFFFF34
:10C00000080E0001B16F3F0E0201046F040100979A
:10C01000C696010E456F400E446F2F0E436F000E03
:10C02000476F4691468F010E0201D56FA00ED46F67
:10C03000D189D18B0401009FC68E070E0201766F55
:10C040000401009DBE8CC69C260E0201076FD28F94
:10C05000000E0401186F1969C968000E086F09699C
:10C06000C768000E106F1169C86820912181CA80CD
:10C070002093C292CA922095C284CA9400910181F1
:10C08000C680009B018BC68A00930183C6820095FF
:10C090000185C6840099BE88C698010E0201616FB1
:10C0A000020E626F050E656F1F0E636F1E0E646FCA
:10C0B0001D0E676F1C0E686F010E056F000E0001EC
:10C0C000D56F000ED76F360ED86F370ED96F380E7A
:10C0D000DA6F3A0EDB6F020EDC6F080EDD6F200E9A
:10C0E000DE6F800EDF6F820ED66F010ED56F0D0EE4
:10C0F000D76F020ED86F030ED96F060EDA6F070ED8
:10C10000DB6F050EDC6F500EDD6F000EDE6F000E74
:10C11000DF6F820ED66F020ED56F8C0ED76F020EB8
:10C12000D86F030ED96F7F0EDA6F7F0EDB6F020EB2
:10C13000DC6F080EDD6F000EDE6F000EDF6F820E0B
:10C14000D66F030ED56F830ED76F000ED86F010E1A
:10C15000D96F340EDA6F040EDB6F820EDC6F140EB3
:10C16000DD6F000EDE6F000EDF6F040ED66FD78519
:10C17000D7958C0ED66F040ED56F820ED76F390E01
:10C18000D86F010ED96F340EDA6F040EDB6F010E1B
:10C19000DC6F540EDD6F000EDE6F000EDF6F040EDD
:10C1A000D66FD785D7958C0ED66F050ED56F830EBB
:10C1B000D76F000ED86F010ED96F350EDA6F040EEF
:10C1C000DB6F820EDC6F140EDD6F000EDE6F000E73
:10C1D000DF6F040ED66FD785D7958C0ED66F060EFF
:10C1E000D56F000ED76F080ED86F000ED96F7F0E77
:10C1F000DA6F7F0EDB6F020EDC6F080EDD6F000E54
:10C20000DE6F000EDF6F040ED66F840ED66F070E42
:10C21000D56F820ED76F000ED86F010ED96F340E16
:10C22000DA6F350EDB6F010EDC6FA40EDD6F000ED2
:10C23000DE6F000EDF6F040ED66FD785D7958C0E9C
:10C24000D66F100E03011A6F800E1B6FE10E186F70
:10C25000870E196F000E106E000E0F6E870E0E6E99
:10C26000E10E0D6E550E0401596FAA0E596F5991CA
:10C27000080E5D6F000E5E6F000E5F6F550E596FFA
:10C28000AA0E596F5981B79AB892B992BD92B19ED0
:10C29000D68EA78AA882A982AD82A18EC2824FEFD4
:06C2A000E1F085EF00F063
:10C2A800BD92D1C412F5CFC411F53AEFE2F0000EF9
:10C2B800C86E8AEFE1F0B7C4C0F4C7EFE1F0C7C2B7
:10C2C800C0F4C7EFE1F01AC3C0F4C7EFE1F01BC335
:10C2D800C0F4C7EFE1F018C3C0F4C7EFE1F019C329
:10C2E800C0F4C7EFE1F00FC5C0F4C7EFE1F010C527
:10C2F800C0F4C7EFE1F00DC5C0F4C7EFE1F00EC51B
:10C30800C0F4C7EFE1F0C068C7EFE1F011C50BF565
:10C3180012C50CF50C50F80AD8B499EFE1F0070AE9
:10C32800D8B4BCEFE1F087EFE1F00B50000AD8B4C5
:10C3380067EFE1F0010AD8B46BEFE1F0030AD8B473
:10C348007FEFE1F0010AD8B483EFE1F0130AD8B423
:10C358006FEFE1F0010AD8B473EFE1F0310AD8B415
:10C3680077EFE1F0010AD8B47BEFE1F087EFE1F075
:10C378000B50000AD8B463EFE1F0010AD8B45FEFBC
:10C38800E1F087EFE1F0070E0001D56FD785D7956B
:10C39800CEA2D1EFE1F0D3EFE1F0CCEFE1F0C86845
:10C3A80047EFE2F0D0C4C9F233EFE2F0D0C41AF399
:10C3B80033EFE2F0D0C41BF333EFE2F0D0C418F34C
:10C3C80033EFE2F0D0C419F333EFE2F0D0C40FF545
:10C3D80033EFE2F0D0C410F533EFE2F0D0C40DF53E
:10C3E80033EFE2F0D0C40EF533EFE2F011C50BF5F0
:10C3F80012C50CF50C50F80AD8B409EFE2F0070A98
:10C40800D8B42CEFE2F033EFE2F00B50000AD8B4C6
:10C41800DAEFE1F0010AD8B4DEEFE1F0030AD8B4AC
:10C42800F2EFE1F0010AD8B4F6EFE1F0130AD8B45C
:10C43800E2EFE1F0010AD8B4E6EFE1F0310AD8B44E
:10C44800EAEFE1F0010AD8B4EEEFE1F033EFE2F001
:10C458000B50000AD8B4D6EFE1F033EFE2F0070E44
:10C468000001D56FD785D79547EFE2F0000ECEBA19
:10C47800010E000AD8B45BEFE1F0010AD8B4FAEF74
:10C48800E1F047EFE2F01100F6C407F5F7C408F54C
:10C49800F8C409F5F5C40AF5B992000EC86ED1C4FE
:10C4A80012F5CFC411F5000E1124F66E000E1220FD
:10C4B800F76EF86A010EF8220800F5C4C0F4050EFC
:10C4C8000001D56FD785D795CEA26DEFE2F06FEF5B
:10C4D800E2F068EFE2F0C8680AC5F5F409C5F8F4B7
:0AC4E80008C5F7F407C5F6F41100CB
:10C4F400B79A000EC86ED1C412F5CFC411F5FF0E61
:10C504001114036E3F0E1214046E000E0324D96E30
:10C51400070E0420DA6EDF50C06E030E0001D56FE3
:10C52400D785D795CEA299EFE2F09BEFE2F094EF96
:10C53400E2F0C8681100126A116A106A0F6A0E6A82
:10C544000D6A01EE00F31CEE00F0EE6AE550E150D6
:10C55400FCE1E250FAE10401080E5D6F000E5E6F2B
:0AC56400000E5F6F000100EFE0F031
:10C57000B892D1C412F5CFC411F5FF0E1114056E97
:10C580003F0E1214066E000E0524D96E070E06200B
:10C59000DA6ED0C4DFF4040E0001D56FD785D795CD
:02C5A000110088
:10C5A400B19E18C301F519C302F50D500124016EA3
:10C5B4000E500220026E01C518F302C519F30F4A8A
:06C5C400102A1100110015
:020000040020DA
:10000000FF0FFF0FFF0FFF0FFF0FFF0FFF0FFF0F80
:10001000FF0FFF0FFF0FFF0FFF0FFF0FFF0FFF0F70
:10002000FF0FFF0FFF0FFF0FFF0FFF0FFF0FFF0F60
:10003000FF0FFF0FFF0FFF0FFF0FFF0FFF0FFF0F50
:020000040030CA
:100000008CEFFFF79FFFFFFFFFFFFFFFFFFFFFFFEB
:10001000FFFFFFFFFFFFFFFFFFFFFFFFFFFFFFFFF0
:04002000FFFFFFFFE0
:00000001FF
