:0400000085EF00F098
:10000800A540A540A540A540A5400040A540A54065
:10001800A540A540A540A540A540A540A540A540B0
:10002800A540A540A540A540A540A540A540A540A0
:10003800A540A540A540A540A540A540A540A54090
:10004800A540A540A540A540A540A540A540A54080
:10005800A540A540A540A540A540A540A540A54070
:10006800A540A540A540A540A540A540A540A54060
:10007800A540A540A540A5404200A540A540A540F3
:10008800A540A540A540A540A540A540A540A54040
:10009800A540A540A540A5404200A540A540A540D3
:1000A800A540A540A540A540A540A540A540A54020
:1000B800A540A540A540A540A540A540A540A54010
:1000C800A540A540A540A540A540A540A540A54000
:1000D800A540A540A540A540A540A540A540A540F0
:1000E8004200A540A540A540A540A540A540A54083
:1000F800A540A540A540A540A540A540A540A540D0
:06010800FF0031EF81F061
:10BFFE0000C37B00C3370D0000C3400000000000EB
:10C00E0000C348000000000000C350000000000004
:10C01E0000C358000000000000C3600000000000D4
:10C02E0000C368000000000000C3700000000000A4
:10C03E0000220E9F2A009F182E220E9F2A029F1862
:10C04E0026220E9F2A049F181E220E9F2A069F1834
:10C05E0016220E9F2A089F180E220E9F2A0A9F183C
:10C06E0006220E9F2A0C9FE52A0E9FC9F331009FD0
:10C07E0021008022309F22379F22359F3E49323940
:10C08E009F21951322009F21841322029F218F133B
:10C09E0022049F217A0022069F217A0022089F21E6
:10C0AE00FE0C220A9F217B0D220C9FAF213C9F0686
:10C0BE001A772310FC21C08E22509F21008022521D
:10C0CE009F06083E2E217B9F772310FCAF77061428
:10C0DE0021679FAF772310FC3E4932619F3E4E325F
:10C0EE00609F2E00260022629FAF32669F21008045
:10C0FE0022699F226D9F22719F22759F22799F7EBA
:10C10E0032689F326C9F32709F32749F32789F21BB
:10C11E00EF10CDF00B212C11CDF00BCD580CCDA97D
:10C12E000CCDB00CB728EEFE44CADC06FE47CAE0C2
:10C13E0007FE53CAAA08FE4CCA2009FE50CAFD09C2
:10C14E00FE52CAD80AFE23CA7701FE42CA9102FEE7
:10C15E0054CA4F03FE3F2808214911CDF00B18B5E4
:10C16E00214F0FCDF00B18AD23CDA90CCDB00CB7D0
:10C17E0028E6FE4C2825CD220238DD79FE11D26745
:10C18E0001B7CA67013D1716005F21C801195E236A
:10C19E0056EB5E23567AB328BFEBE921C8015E2326
:10C1AE005623D5DDE1DD7E00DDB60128091313EB44
:10C1BE00CDF00BEB18E8C32401E8010402200220A5
:10C1CE000220022002200220022002200220022051
:10C1DE000220022002200220020020312E204241A5
:10C1EE00534943342E376220436F6C64205374617D
:10C1FE0072740D0A000320322E20424153494334FB
:10C20E002E3762205761726D2053746172740D0A5D
:10C21E00000000AF474FCDA90CCDB00CB7C8CD4331
:10C22E0002D8F508F1CD5202D80816005FCD69028A
:10C23E00D82318E2B7280AFE30D8FE3A3003D6309B
:10C24E00C937C9C5CB21CB10CB21CB10CB21CB10FD
:10C25E00D1D8CD6902D8CD6902C9E5D5E109E5C1CC
:10C26E00E1C93A6F9FB728082A719F3E31CD350339
:10C27E003A739FB7CA24012A759F3E32CD3503C348
:10C28E00240123CDA90CCDB00CB728D6016F9FFE8B
:10C29E0031280E01739FFE322807FE432841C367E3
:10C2AE00010823CDA90CCDB00CB7285DFE2CC267BA
:10C2BE000123CDA90CC5CDB90CE1DA6701CDD502AC
:10C2CE00DA6701C324017AFE80DAEC02FEE0D2ECDA
:10C2DE00023E0177231A7723732372B7C937C92316
:10C2EE00CDA90CCDB00CB72814016F9FFE312808D4
:10C2FE0001739FFE32C26701AF02C32401AF016F0B
:10C30E009F0201739F02C324010AB7CA2401082A9F
:10C31E00719FFE3128032A759FCD3503C324014238
:10C32E00502800293A00E5F5212E03CDF00BF1CD72
:10C33E009513213203CDF00BE1CDF90BCD3C0CC999
:10C34E00E52E00260022629F2A529F22649FAF3262
:10C35E00669FE123CDA90CCDB90CD22104CDA90C39
:10C36E007EB7CA4A04FE2CCA3204CDB00CFE502849
:10C37E0051FE4DC2670123CDA90CCDB00C21C303D4
:10C38E00FE49281021C903FE532809B7C267013A96
:10C39E00619F18E932619FE521B403CDF00BE1CD29
:10C3AE00F00BC32401544D206D6F64653A3C43413C
:10C3BE004C4C2000494E3E0D0A00534B49503E0D49
:10C3CE000A0023CDA90CCDB00CB720053A609F18FA
:10C3DE000CFE4FC2670123CDA90CCDB00C21160463
:10C3EE00FE4E2808211B04FE46C2670132609FE5FF
:10C3FE00210C04CDF00BE1CDF00BC32401545020E1
:10C40E006D6F64653A20004F4E0D0A004F46460D83
:10C41E000A00ED53649FCDA90CB7281FFE2C2803EC
:10C42E00C3670123CDA90CB7CA6701FE2D2811CD14
:10C43E002202DA6701ED43629F181B01010018F515
:10C44E0023CDA90CFE31C2670123CDA90CB7C2675B
:10C45E00013E0132669F2A649F7E01080021FA0583
:10C46E00EDB120130E01CDCB05DA8A050E02CDAB50
:10C47E0005DA8A05C38705010500210206EDB12004
:10C48E00190E012A649FCD9E05CDD805DA8A050EB8
:10C49E0002CDB005DA8A05C387050108002107061B
:10C4AE00EDB120040E011813010800210F06EDB1A5
:10C4BE00201A0E013A619FFE532808CDBF05DA8A75
:10C4CE00050E02CDB505DA8A05C38705FEC9200B18
:10C4DE000E01CDCB05DA8A05C387050108002117A9
:10C4EE0006EDB1200B0E01CDAB05DA8A05C387052B
:10C4FE00FEED2013237EFE452804FE4D20090E017D
:10C50E00CDCB05387618712A649F7EFEE9200C2A61
:10C51E00429F0E01CDD8053862185DFEDD200B233B
:10C52E007EFEE920052A4C9F18E82A649F7EFEFDB8
:10C53E00200B237EFEE920052A4E9F18D52A649FE4
:10C54E007EFE18200C0E01CD9E05CDD805382C1878
:10C55E0027FEC320090E01CDBF05381F181AFECDC8
:10C56E00C21F060E013A619FFE532807CDBF053844
:10C57E000A1805CDB5053803C32308219405CDF05F
:10C58E000BC32401FF416472204552520D0A002351
:10C59E005E2316FFCB7B2002160019C92A649F1852
:10C5AE000A2A649F18042A649F232323CDD805C921
:10C5BE002A649F235E2356EBCDD805C9ED5B509FB1
:10C5CE001A6F131A67CDD805C97CFE80381BFE9FE3
:10C5DE00301779FE01200911679F1222699F1807F3
:10C5EE00116B9F12226D9FAFC937C9C0C8D0D8E05A
:10C5FE00E8F0F81020283038C2CAD2DAE2EAF2FAAD
:10C60E00C4CCD4DCE4ECF4FCC7CFD7DFEFE7F7FF04
:10C61E0001120021B806EDB1CA930601080021CA25
:10C62E0006EDB1CA9E062A649FFECB2857FEDD2872
:10C63E000AFEED2828FEFD2802183E237EFECB289A
:10C64E0059FE212855FE222851FE2A284DFE362855
:10C65E0049010A0021D206EDB128291832237EFEA7
:10C66E00432837FE4B2833FE53282FFE5B282BFE24
:10C67E00732827FE7B2823180B0E01CDAB05DA8A13
:10C68E0005C387050E01CDB005DA8A05C387050EF1
:10C69E0001CDB505DA8A05C387050E012A649F23ED
:10C6AE00CDB805DA8A05C38705060E161E262E3668
:10C6BE003EC6CED3D6DBDEE6EEF6FE011121222AF1
:10C6CE0031323A091923292B39E1E3E5F923CDA9B2
:10C6DE000CCDB90C3014CDA90C7EB7C267012A302F
:10C6EE009F0180000922329F182FED53309FCDA954
:10C6FE000C7EFE2C280DB7C2670121800019223254
:10C70E009F181623CDA90CCDB90CDA6701CDA90C53
:10C71E00B7C2670113ED53329F2A309F3EF0A56FCB
:10C72E00AF32349FE5CD5A07E101100009CD8F13CA
:10C73E0020103A349FFE0238EB2A329F22309FC3DC
:10C74E00240122309FCD8413C32401CDF90BE521A2
:10C75E005111CDF00BE1DD21109F0610CD94071085
:10C76E00FB215411CDF00B21109F06107E23FE20CD
:10C77E003809FE7F3005CD951318053E2ECD951345
:10C78E0010EAC33C0C3E20CD95133A349FB72020BF
:10C79E003A309FBD20063A319FBC280F3E20CD95E2
:10C7AE0013CD9513DD770023DD23C93E0132349F6F
:10C7BE003A349FFE0120E57EDD7700CDFE0B23DDB2
:10C7CE00233A329FBDC03A339FBCC03E0232349FE3
:10C7DE00C9ED5B529FED535E9F23CDA90CCDB90CD5
:10C7EE003003B7280A7AFEE0D26701ED535E9FCD83
:10C7FE00A90C7EB72818FE2CC2670123CDA90CCD3B
:10C80E00B90CDA670121779FCDD502DA67012A5E6E
:10C81E009F22529F216F9F11719FCD9B0821739F65
:10C82E0011759FCD9B083A679FB7281A2A649F22DD
:10C83E00529F21679F11699FCD9B08216B9F116DA0
:10C84E009FCD9B08180921779F11799FCD9B082AB0
:10C85E00509FF92A529FE5DD2A4C9FFD2A4E9F2AB2
:10C86E00449FE5ED4B469FED5B489F2A4A9FD9F1C9
:10C87E00082A3C9FE5ED4B3E9FED5B409F2A429F71
:10C88E003A549FED473A559FED4FF1C97EB7C823F5
:10C89E001A4F131A470A773EFF02C923CDA90CCDB2
:10C8AE00B90CDA6701CDA90C7EB7C2670179B72042
:10C8BE0004ED5B379FEBCDF90BE5215411CDF00B59
:10C8CE00E17EE5CDFE0B3E20CD9513CD580CCDA9C6
:10C8DE000C7EB72007E12322379F18DAFE2D2007A2
:10C8EE00E12B22379F18CFFE2E2007E122379FC360
:10C8FE002401CDB90CB7E1CA6701732322379FED2E
:10C90E005B719F1A32709FED5B759F1A32749F1880
:10C91E00A5AF326F9F32739F23CDA90CCDB90CCD2D
:10C92E00A90C7EB7C2670179B72003110000CD8430
:10C93E0013CDB00CFE532861FE3A280DFE0D28EEE5
:10C94E00FE0A28EACD841318F33E2ECD9513CD158D
:10C95E000C4F47CD150C67814FCD150C6F814F19BC
:10C96E00CD150C323A9F814F78B72814CD150CF5A2
:10C97E00814F3A3A9FB72005F177231801F110EC59
:10C98E00CD150C81200A3A3A9FB7CA5309C3240128
:10C99E00212F11CDF00BC32401CD8413323A9FCD3C
:10C9AE00150C474FCD150C67814FCD150C6F814F70
:10C9BE00190505052815CD150CF5814F3A3A9FFE40
:10C9CE00312005F177231801F110EBCD150C81FE06
:10C9DE00FF20123A3A9FFE372811FE38280DFE39F5
:10C9EE002809C35309213C11CDF00BC32401237E2A
:10C9FE00CDB00CFE492804FE5320042332399FCDBE
:10CA0E00A90CCDB90CB7281CD5DDE1CDA90C7EFE45
:10CA1E002C201123CDA90CCDB90CB72807CDA90C0C
:10CA2E007EB72803C36701DDE5E1EB23B7ED52CDF9
:10CA3E005E0A7CB520F93A399FFE4920092158112A
:10CA4E00CDF00BC32401216611CDF00BC324010ED2
:10CA5E00107CB720057DB930014F0600B7ED42417D
:10CA6E003A399FFE4920303E3ACD951378CDFE0BD4
:10CA7E00487ACDFE0B7A814F7BCDFE0B7B814FAF7B
:10CA8E00CDFE0B1AF5CDFE0BF1814F1310F579ED9E
:10CA9E0044CDFE0BC33C0C3E53CD95133E31CD958C
:10CAAE001378C6034FCDFE0B7ACDFE0B7A814F7BEA
:10CABE00CDFE0B7B814F1AF5CDFE0BF1814F13107E
:10CACE00F5792FCDFE0BC33C0C23CDA90CCDB00CAC
:10CADE00B72006CD640BC32401EB211C12BE280D1A
:10CAEE004F237EB7286C790105000918F0237EFECE
:10CAFE000F200C234E236669131ACDB00C18DEB727
:10CB0E0028504E235E2356D5237E23666FCDF00B21
:10CB1E003E3DCD951379E607FE012008E17EE5CD79
:10CB2E00FE0B180CE1E5237ECDFE0B2B7ECDFE0B0E
:10CB3E003E20CD9513C5CD580CCDA90CCDB90CB753
:10CB4E00280DC1E179FE012003731803732372C30C
:10CB5E002401C367012173115E2356237AB3CA3CA5
:10CB6E000CD5EBCDF00BEBD13E11BA20073EDEBB60
:10CB7E00200218293E12BA20053E05BB281F5E234F
:10CB8E0056237E23EBFE0120077ECDFE0BEB18C84D
:10CB9E00237ECDFE0B2B7ECDFE0BEB18BB5E2356FC
:10CBAE00231AD5E5217B9F01E00B11E80BF5F1CBA4
:10CBBE00273006F50A77F11804F51A77F1031323D7
:10CBCE00F57EB720E9F1217B9FCDF00BE1D1231843
:10CBDE0087535A2E482E504E432E2E2E2E2E2E2E4C
:10CBEE002E7EA7C8CD95132318F77CCDFE0B7DF5B1
:10CBFE001F1F1F1FCD070CF1E60FC630FE3ADA9548
:10CC0E0013C607C39513AFCD1D0C07070707C54FF6
:10CC1E00CD8413CDB00CFE303811FE3A380AFE41E9
:10CC2E003809FE473005D607D630B1C1C93E0DCD05
:10CC3E0095133E0AC39513E5214F0CCDF00BE1C9B8
:10CC4E001B5B3200C506001806C521109F0600CDDD
:10CC5E008413FE0D283AFE0A2836FE08281BFE7F96
:10CC6E002817FE2038E9FE8030E54F78FE1F30DFB2
:10CC7E000479CD9513772318D678A728D2052B3EA5
:10CC8E0008CD95133E20CD95133E08CD951318BFB4
:10CC9E00CD3C0C360021109FC1C97EFE20C023184A
:10CCAE00F9FE61D8FE7BD0C6E0C90E001100007EF1
:10CCBE00CDB00CFE30382CFE3A380AFE413824FE38
:10CCCE00473020D607D6301717171717CB13CB12AE
:10CCDE0017CB13CB1217CB13CB1217CB13CB1223AD
:10CCEE000C18CC79B72806FE053002B7C937C9E54E
:10CCFE00C5210E0D0600090946236668C1E3C93435
:10CD0E000D370D9513F00B84138F13790DF90BFE60
:10CD1E000B070C460C530CA90C3C0CB00CB90C9127
:10CD2E000EC70E3D0FC37B0031009F3A779FB72889
:10CD3E000621789FCD620E3A679FB7280621689F1D
:10CD4E00CD620E3A6B9FB72806216C9FCD620E3ACC
:10CD5E00739FB7280621749FCD6E0E3A6F9FB7282A
:10CD6E000621709FCD6E0EC3380EAFC9F5ED5F3242
:10CD7E00559FED5732549F22429FED53409FED43F6
:10CD8E003E9FE1223C9F08F5D9224A9FED53489FD2
:10CD9E00ED43469FE122449FDD224C9FFD224E9F94
:10CDAE00E12B22529FED73509F31009FAF575F3A98
:10CDBE00779FB72809117F0E21789FCD620E3A67B3
:10CDCE009FB7280911880E21689FCD620E3A6B9F7E
:10CDDE00B7280911880E216C9FCD620E3A739FB74A
:10CDEE002809117F0E21749FCD6E0E3A6F9FB728C2
:10CDFE0009117F0E21709FCD6E0E7AB3200311752F
:10CE0E000E1AFE542809EBCDF00BCD640B181A3A0E
:10CE1E00609FFE462807EBCDF00BCD640BCD8F1334
:10CE2E002813CD8413FE03200CAF32669F676F224A
:10CE3E00629FC324013A669FB7C2590E2A629F2B86
:10CE4E0022629F7DB42003C324012A529F22649F35
:10CE5E00C36504E57E234E234602E1AF2B77C97EE0
:10CE6E00234E234602C9525354203338480D0A002C
:10CE7E00427265616B210D0A005472616365210D6A
:10CE8E000A00F5C5D5E5DDE5E5DDE1EBE5210500BB
:10CE9E0019AF77EBE10101003E0ACDC70EF6301B4C
:10CEAE00120C7CB520F279FE062806DDE5E1EBEDED
:10CEBE00B0DDE1E1D1C1F1C9C5D54F060FAF2917DC
:10CECE0091380D292C1791380C292C10F8C3E80E27
:10CEDE0029178138F42910F981D1C1C922569FED45
:10CEEE0053589FAF325A9F325B9F325C9F325D9F89
:10CEFE000610215A9FCB2623CB1621569FCB2623D5
:10CF0E00CB16215C9FCB1623CB162A589F5D542A35
:10CF1E005C9FAFED523002180B225C9F3A5A9FF67F
:10CF2E0001325A9F10CC2A5A9FED5B5C9FC9F5C502
:10CF3E00B71804CB21CB101F30F90920F6C1F1C967
:10CF4E003F203A20436F6D6D616E642048656C70B2
:10CF5E000D0A445B616464725D203A2044756D7005
:10CF6E00204D656D6F7279205B616464725D0D0A90
:10CF7E00535B616464725D203A20536574204D6585
:10CF8E006D6F7279205B616464725D0D0A525B7223
:10CF9E0065675D203A20536574206F722044756D6D
:10CFAE0070205B7265675D0D0A475B616464725D3C
:10CFBE005B2C73746F7020616464725D203A20473D
:10CFCE006F20616E642053746F7020737065636997
:10CFDE006669656420616464726573730D0A4C2022
:10CFEE003A204C6F6164204865782046696C650D67
:10CFFE000A505B497C535D203A2053617665204888
:10D00E0065782046696C652028493A496E74656CCE
:10D01E002C20533A4D6F746F726F6C610D0A234C56
:10D02E007C4E756D626572203A204C61756E636838
:10D03E002070726F6772616D0D0A425B317C325BDC
:10D04E002C425020616464725D5D203A20536574F9
:10D05E0020427265616B20506F696E740D0A4243F7
:10D06E005B317C325D203A20436C656172204272E6
:10D07E0065616B20506F696E740D0A545B61646458
:10D08E00725D5B2C73746570737C2D315D203A205C
:10D09E00547261636520636F6D6D616E640D0A5429
:10D0AE00505B4F4E7C4F46465D203A205472616372
:10D0BE0065205072696E74204D6F64650D0A544D73
:10D0CE005B497C535D203A205472616365204F703A
:10D0DE0074696F6E20666F722043414C4C0D0A00CE
:10D0EE000D0A454D555A3830204D4F4E49544F522A
:10D0FE00205265762E4230310D0A54686973206DC8
:10D10E006F6E69746F72206973206261736564203B
:10D11E006F6E20756E696D6F6E2E0D0A005D2000AC
:10D12E004572726F7220696865780D0A00457272D9
:10D13E006F7220737265630D0A004572726F720D05
:10D14E000A00203A00203A20003A30303030303099
:10D15E00303146460D0A00533930333030303046C8
:10D16E00430D0A00C8113D9F01CC113E9F02D21102
:10D17E00409F02D811429F02DE113C9F01E3114CE9
:10D18E009F02E8114E9F02ED11459F01F311469F3C
:10D19E0002F911489F02FF114A9F020512449F0196
:10D1AE000A12509F020F12529F021412549F01181E
:10D1BE0012559F01000000000041203D0020424317
:10D1CE00203D00204445203D0020484C203D0020BD
:10D1DE0046203D002049583D002049593D000D0A8A
:10D1EE0041273D00204243273D00204445273D0076
:10D1FE0020484C273D002046273D002053503D003F
:10D20E002050433D0020493D0020523D00410F6615
:10D21E00120000420F74120000430F9612000044D9
:10D22E000FA4120000450FC6120000460FD41200C4
:10D23E0000480FE2120000490F121300004C0F04B9
:10D24E00130000500F261300005201559F811353F7
:10D25E000F2E130000000000013D9F3613270145DD
:10D26E009F4F13000000013F9F3B132701479F561E
:10D27E0013430F88120000000000023E9F38132750
:10D28E0002469F5213000000013E9F3D13270146A8
:10D29E009F591300000001419F42132701499F60CF
:10D2AE0013450FB812000000000002409F3F1327E5
:10D2BE0002489F5C1300000001409F441327014861
:10D2CE009F6313000000013C9F4D132701449F7084
:10D2DE001300000001439F491327014B9F6A134C13
:10D2EE000FF612000000000002429F461327024A6A
:10D2FE009F661300000001429F4B1327014A9F6D4A
:10D30E001300000001549F7F1358024C9F73135952
:10D31E00024E9F761300004302529F7C1300005072
:10D32E0002509F7913000041004243004200430027
:10D33E0044450044004500484C0048004C0046005F
:10D34E004127004243270042270043270044452738
:10D35E0000442700452700484C27004827004C274B
:10D36E0000462700495800495900535000504300C9
:10D37E0049005200C93A01E0CB4728F93A00E0C90A
:10D38E003A01E0CB47C9F53A01E0CB4F28F9F1322B
:10D39E0000E0C9FFFFFFFFFFFFFFFFFFFFFFFFFFE3
:10D3AE00FFFFFFFFFFFFFFFFFFFFFFFFFFFFFFFF7F
:10D3BE00FFFFFFFFFFFFFFFFFFFFFFFFFFFFFFFF6F
:10D3CE00FFFFFFFFFFFFFFFFFFFFFFFFFFFFFFFF5F
:10D3DE00FFFFFFFFFFFFFFFFFFFFFFFFFFFFFFFF4F
:10DFFE00FFC30620C37B20C30D20BC283230214531
:10E00E0080F9C3463C11E52206632145801A772329
:10E01E001305C21C20F9CDE624CDB22A32EF803290
:10E02E003E8121A281237CB5CA43207E472F77BE35
:10E03E0070CA34202B11A181CD7C26DA842011CE1A
:10E04E00FF22F48019229F80CDC1242A9F8011EFD8
:10E05E00FF19113E817D936F7C9A67E5219C20CD3F
:10E06E005031E1CDF337218D20CD503131AB80CD04
:10E07E00E624C3FF2321D320CD5031C38A20204272
:10E08E007974657320667265650D0A00005A383022
:10E09E002042415349432056657220342E37620D7B
:10E0AE000A436F707972696768742028432920319A
:10E0BE00393738206279204D6963726F736F6674D9
:10E0CE000D0A00004D656D6F72792073697A6520B7
:10E0DE006E6F7420656E6F7567680D0A54686520E3
:10E0EE0073797374656D2069732073746F707065C6
:10E0FE00642E0D0A000068362C377E3648801030AC
:10E10E0095333E30F238D1390D354039463A4C3AD6
:10E11E00AD3AC23AE9332C3B9680C232DA305C33E8
:10E12E00D132E2324E3BE13BF23222332C33C54E3A
:10E13E0044C64F52CE455854C4415441C94E505511
:10E14E0054C4494DD2454144CC4554C74F544FD287
:10E15E00554EC946D24553544F5245C74F5355425B
:10E16E00D2455455524ED2454DD3544F50CF55549F
:10E17E00CF4ECE554C4CD7414954C44546D04F4B4B
:10E18E0045C44F4B45D3435245454ECC494E45535E
:10E19E00C34C53D749445448CD4F4E49544F52D394
:10E1AE004554D245534554D052494E54C34F4E5404
:10E1BE00CC495354C34C454152C34C4F4144C353B5
:10E1CE00415645CE4557D4414228D44FC64ED35022
:10E1DE004328D448454ECE4F54D3544550ABADAAE8
:10E1EE00AFDEC14E44CF52BEBDBCD3474EC94E5416
:10E1FE00C14253D55352C65245C94E50D04F53D338
:10E20E005152D24E44CC4F47C55850C34F53D349A9
:10E21E004ED4414EC1544ED045454BC445454BD0CE
:10E22E004F494E54CC454ED3545224D6414CC15333
:10E23E0043C3485224C8455824C2494E24CC4546AF
:10E24E005424D24947485424CD494424805428515B
:10E25E00272C2CA129332B682E622BB8295E29413D
:10E26E0029302A1A284D297C29A3295228A1331294
:10E27E002A9328A7334630F033373BA3291D3B1191
:10E28E003B153B433C99809C80542A8028C626FB34
:10E29E0028A329A329C02479DA37790E347C4C358A
:10E2AE007CAD357FFB3850C12D46C02D4E46534EAA
:10E2BE0052474F4446434F564F4D554C425344449C
:10E2CE002F304944544D4F534C535354434E55469F
:10E2DE004D4F4858424EC37B20C3D128D300C9D6D8
:10E2EE00006F7CDE006778DE00473E00C90000004C
:10E2FE00354ACA99391C76982295B3980ADD479803
:10E30E0053D199990A1A9F9865BCCD98D6773E98A5
:10E31E0052C74F80DB00C901FF1C0000140014001F
:10E32E0000000000C3F925C30000C30000C30000B5
:10E33E00A281FEFF3F81204572726F720020696ECE
:10E34E0020004F6B0D0A0000427265616B002104C4
:10E35E0000397E23FE81C04E234623E569607AB3E1
:10E36E00EBCA7723EBCD7C26010D00E1C809C36112
:10E37E0023CD9A23C5E3C1CD7C267E02C80B2BC3C9
:10E38E008623E52A1F81060009093EE53ED0956FDA
:10E39E003EFF9CDAA9236739E1D81E0CC3C8232A95
:10E3AE000E8122A1801E02011E14011E00011E12EA
:10E3BE00011E22011E0A011E18CDE624328A80CDCE
:10E3CE00A52A21BB22573E3FCD8D26197ECD8D2607
:10E3DE00CD0A28CD8D26214523CD50312AA180117D
:10E3EE00FEFFCD7C26CA0D207CA53CC4EB373EC17A
:10E3FE00AF328A80CDA52A215123CD503121FFFF86
:10E40E0022A180CDF925DA0C24CD0A283C3DCA0C78
:10E41E0024F5CDD628D5CD102547D1F1D2EA27D572
:10E42E00C5AF321181CD0A28B7F5CDA024DA452427
:10E43E00F1F5CA7729B7C5D25C24EB2A1B811A02E3
:10E44E000313CD7C26C24D246069221B81D1F1CAF3
:10E45E0083242A1B81E3C109E5CD8023E1221B81A0
:10E46E00EB74D123237323722311A6801A772313FF
:10E47E00B7C27B24CDCC2423EB626B7E23B6CA0CB1
:10E48E0024232323AFBE23C29424EB732372C388A9
:10E49E00242AA380444D7E23B62BC823237E2366D5
:10E4AE006FCD7C2660697E23666F3FC83FD0C3A3C5
:10E4BE0024C02AA380AF77237723221B812AA3802F
:10E4CE002B2213812AF480220881AFCD1A282A1B11
:10E4DE0081221D81221F81C12A9F80F921F880226D
:10E4EE00F680AF6F67221981321081222381E5C534
:10E4FE002A1381C93E3FCD8D263E20CD8D26C39356
:10E50E0080AF32F3800E0511A6807EFE20CA9825BC
:10E51E0047FE22CAB825B7CABF253AF380B77EC2D6
:10E52E009825FE3F3E9ECA98257EFE30DA4325FE94
:10E53E003CDA9825D5113C21C5019425C5067F7E70
:10E54E00FE61DA5C25FE7BD25C25E65F774EEB231F
:10E55E00B6F25E25047EE67FC8B9C25E25EBE513F2
:10E56E001AB7FA90254F78FE88C27F25CD0A282B40
:10E57E00237EFE61DA8825E65FB9CA6E25E1C35CAB
:10E58E002548F1EBC9EB79C1D12312130CD63ACA47
:10E59E00A625FE49C2A92532F380D654C2192547B5
:10E5AE007EB7CABF25B8CA982523120C13C3AF2550
:10E5BE0021A5801213121312C93A8980B73E003278
:10E5CE008980C2DC2505CAF925CD8D263E052BCACC
:10E5DE00F0257ECD8D26C30226052BCD8D26C202BB
:10E5EE0026CD8D26CDB22AC3F92521A6800601AFF0
:10E5FE00328980CDB5264FFE7FCAC8253A8980B7AD
:10E60E00CA1B263E00CD8D26AF32898079FE07CA01
:10E61E005F26FE03CCB22A37C8FE0DCAAD2AFE1500
:10E62E00CAF325FE40CAF025FE5FCAE825FE08CAD9
:10E63E00E825FE12C25A26C5D5E53600CD553C2139
:10E64E00A680CD5031E1D1C1C30226FE20DA0226CA
:10E65E0078FE493E07D2742679713211812304CD9A
:10E66E008D26C30226CD8D263E08C36E267C92C013
:10E67E007D93C97EE3BE23E3CA0A28C3B423F53AC9
:10E68E008A80B7C28531F1C5F5FE20DAB1263A8708
:10E69E0080473AF08004CAAD2605B8CCB22A3C3287
:10E6AE00F080F1C1CFC9CD0F3BE67FFE0FC03A8A95
:10E6BE00802F328A80AFC9CDD628C0C1CDA024C547
:10E6CE00CD1C27E14E23462378B1CAFF23CD252743
:10E6DE00CD3528C5CDB22A5E235623E5EBCDF337D3
:10E6EE003E20E1CD8D267EB723CAD226F2F226D663
:10E6FE007F4F113D211A13B7F204270DC20427E6EE
:10E70E007FCD8D261A13B7F20E27C3F526E52A8D77
:10E71E0080228B80E1C9E5D52A8B8011FFFFED5A4F
:10E72E00228B80D1E1F0E52A8D80228B80CD0F3BAC
:10E73E00FE03CA4827E1C325272A8D80228B80C37A
:10E74E007E203E64321081CDB829C1E5CDA12922AB
:10E75E000C8121020039CD6123D1C2812709D52B2D
:10E76E00562B5E2323E52A0C81CD7C26E1C265273C
:10E77E00D1F9EB0E08CD9123E52A0C81E3E52AA110
:10E78E0080E3CD7A2CCD8226A6CD772CE5CDA5368D
:10E79E00E1C5D5010081515A7EFEAB3E01C2BD27B7
:10E7AE00CD0A28CD772CE5CDA536CD5936E1C5D588
:10E7BE00F533E52A1381E30681C533CD35282213BF
:10E7CE00817EFE3ACAEA27B7C2B423237E23B6CA95
:10E7DE005C28235E2356EB22A180EBCD0A2811CABA
:10E7EE0027D5C8D680DAB829FE25D2B423074F061E
:10E7FE0000EB215C22094E2346C5EB237EFE3AD068
:10E80E00FE20CA0A28FE303F3C3DC9EB2AA380CA2F
:10E81E002F28EBCDD628E5CDA0246069D1D277295B
:10E82E002B222181EBC9DFC8D7FE1B2811FE03283E
:10E83E000DFE13C0D7FE11C8FE03280718F63EFFC3
:10E84E00329280C0F6C022138121F6FFC12AA18028
:10E85E00F57DA43CCA6F282217812A1381221981C3
:10E86E00AF328A80CDA52AF1215723C2E823C3FFF8
:10E87E00232A19817CB51E20CAC823EB2A178122B0
:10E88E00A180EBC9CDD833C0328680C9E52A8F80EE
:10E89E0006004F09228F80E1C97EFE41D8FE5B3F04
:10E8AE00C9CD0A28CD772CCD5936FAD1283A2C81EC
:10E8BE00FE90DA0137018090110000E5CDD436E1EB
:10E8CE0051C81E08C3C8232B110000CD0A28D0E55D
:10E8DE00F5219819CD7C26DAB423626B19291929F2
:10E8EE00F1D6305F160019EBE1C3DA28CAD024CD79
:10E8FE00B3282BCD0A28E52AF480CA1E29E1CD8241
:10E90E00262CD5CDB3282BCD0A28C2B423E3EB7D1C
:10E91E00935F7C9A57DAA923E52A1B810128000907
:10E92E00CD7C26D2A923EB229F80E122F480E1C385
:10E93E00D024CACC24CDD02401CA27C35D290E030E
:10E94E00CD9123C1E5E52AA180E33E8CF533C5CDFB
:10E95E00D628CDA329E52AA180CD7C26E123DCA3F0
:10E96E0024D4A02460692BD81E0EC3C823C016FF62
:10E97E00CD5D23F9FE8C1E04C2C823E122A18023A3
:10E98E007CB5C29B293A1181B7C2FE2321CA27E367
:10E99E003EE1013A0E0006007948477EB7C8B8C876
:10E9AE0023FE22CAA729C3AA29CD6D2ECD8226B455
:10E9BE00D53AF280F5CD892CF1E32213811FCD7C5F
:10E9CE002CCA0B2AE52A2981E523235E23562AA386
:10E9DE0080CD7C26D2FA292A9F80CD7C26D1D202E8
:10E9EE002A210481CD7C26D2022A3ED1CDB132EB32
:10E9FE00CDEA30CDB132E1CDB436E1C9E5CDB13697
:10EA0E00D1E1C9CDD8337E47FE8CCA212ACD8226CC
:10EA1E00882B4B0D78CAF227CDD728FE2CC0C322E7
:10EA2E002ACD892C7EFE88CA3E2ACD8226A92BCDE0
:10EA3E007A2CCD5936CAA329CD0A28DA5E29C3F11C
:10EA4E00272BCD0A28CAB22AC8FEA5CAE52AFEA8D7
:10EA5E00CAE52AE5FE2CCACE2AFE3BCA082BC1CD3A
:10EA6E00892CE53AF280B7C29E2ACDFE37CD0E3103
:10EA7E0036202A2981342A29813A87804704CA9A66
:10EA8E002A043AF080863DB8D4B22ACD5331AFC4B1
:10EA9E005331E1C3502A3AF080B7C8C3B22A3600C8
:10EAAE0021A5803E0DCD8D263E0ACD8D26AF32F0AE
:10EABE00803A86803DC8F5AFCD8D26F1C3C32A3A84
:10EACE008880473AF080B8D4B22AD2082BD60ED21C
:10EADE00DC2A2FC3FD2AF5CDD533CD8226292BF185
:10EAEE00D6A8E5CAF82A3AF0802F83D2082B3C47E5
:10EAFE003E20CD8D2605C2012BE1CD0A28C3572A13
:10EB0E003F5265646F2066726F6D2073746172740C
:10EB1E000D0A003A1281B7C2AE23C1210F2BCD5080
:10EB2E0031C3FF24CDBB307EFE223E00328A80C22E
:10EB3E004D2BCD0F31CD82263BE5CD53313EE5CD6C
:10EB4E000325C1DA5928237EB72BC5CAA029362C36
:10EB5E00C3672BE52A2181F6AF321281E3C3732BF3
:10EB6E00CD82262CCD6D2EE3D57EFE2CCA9B2B3A64
:10EB7E001281B7C2082C3E3FCD8D26CD0325D1C1C3
:10EB8E00DA5928237EB72BC5CAA029D53AF280B709
:10EB9E00CAC52BCD0A285747FE22CAB92B3A128175
:10EBAE00B757CAB62B163A062C2BCD1231EB21D005
:10EBBE002BE3D5C3D329CD0A28CD6037E3CDB136AB
:10EBCE00E12BCD0A28CADC2BFE2CC2222BE32BCD47
:10EBDE000A28C26F2BD13A1281B7EBC23028D5B6B4
:10EBEE0021F72BC45031E1C93F4578747261206919
:10EBFE00676E6F7265640D0A00CDA129B7C2212C14
:10EC0E00237E23B61E06CAC823235E2356EB220E8E
:10EC1E0081EBCD0A28FE83C2082CC39B2B1100006A
:10EC2E00C46D2E221381CD5D23C2BA23F9D57E2366
:10EC3E00F5D5CD9736E3E5CD0434E1CDB136E1CD52
:10EC4E00A836E5CDD436E1C190CDA836CA672CEBF7
:10EC5E0022A1806960C3C627F92A13817EFE2CC2C9
:10EC6E00CA27CD0A28CD2F2CCD892CF6373AF28023
:10EC7E008FB7E8C3C623CD8226282B1600D50E01EA
:10EC8E00CD9123CD002D2215812A1581C178FE78D4
:10EC9E00D47A2C7E1600D6B3DAC12CFE03D2C12C48
:10ECAE00FE0117AABA57DAB423220A81CD0A28C365
:10ECBE00A52C7AB7C2E82D7E220A81D6ACD8FE07E3
:10ECCE00D05F3AF2803DB37BCA463207835F21A6FE
:10ECDE0022197856BAD023CD7A2CC501982CC5436B
:10ECEE004ACD8A3658514E234623C52A0A81C38CF3
:10ECFE002CAF32F280CD0A281E24CAC823DA603720
:10ED0E00CDA828D2672DFE262012CD0A28FE48CA8D
:10ED1E00A33BFE42CA133C1E02CAC823FEACCA0065
:10ED2E002DFE2ECA6037FEADCA562DFE22CA0F31F9
:10ED3E00FEAACA482EFEA7CA7330D6B6D2782DCDFB
:10ED4E00852CCD822629C9167DCD8C2C2A1581E5E0
:10ED5E00CD8236CD7A2CE1C9CD6D2EE5EB222981FF
:10ED6E003AF280B7CC9736E1C90600074FC5CD0AF7
:10ED7E002879FE31DA9F2DCD852CCD82262CCD7BA8
:10ED8E002CEB2A2981E3E5EBCDD833EBE3C3A72D9A
:10ED9E00CD4E2DE311622DD5010521094E23666955
:10EDAE00E915FEADC8FE2DC814FE2BC8FEACC82B4F
:10EDBE00C9F6AFF5CD7A2CCDBC28F1EBC1E3EBCD86
:10EDCE009A36F5CDBC28F1C179213130C2E32DA39D
:10EDDE004F78A2E9B34F78B2E921FA2D3AF2801FAB
:10EDEE007A175F166478BAD0C3E92CFC2D79B71F59
:10EDFE00C1D1F5CD7C2C213E2EE5CAD436AF32F2F0
:10EE0E0080D5CD93327E23234E2346D1C5F5CD97A3
:10EE1E0032CDA836F157E17BB2C87AD601D8AFBB56
:10EE2E003CD0151D0ABE2303CA262E3FC364363CB2
:10EE3E008FC1A0C6FF9FC36B36165ACD8C2CCD7AD0
:10EE4E002CCDBC287B2F4F7A2FCD3130C1C3982CBF
:10EE5E002BCD0A28C8CD82262C015F2EC5F6AF32E7
:10EE6E00F18046CDA828DAB423AF4F32F280CD0A16
:10EE7E0028DA892ECDA828DA962E4FCD0A28DA8ADE
:10EE8E002ECDA828D28A2ED624C2A52E3C32F280B0
:10EE9E000F814FCD0A283A10813DCA522FF2B52E5E
:10EEAE007ED628CA2A2FAF321081E550592A2381E7
:10EEBE00CD7C26112581CA9A352A1D81EB2A1B810C
:10EECE00CD7C26CAE82E799623C2DD2E789623CAEB
:10EEDE001C2F23232323C3CF2EE1E3D5116A2DCD7F
:10EEEE007C26D1CA1F2FE3E5C50106002A1F81E546
:10EEFE0009C1E5CD8023E1221F816069221D812B8E
:10EF0E003600CD7C26C20E2FD173237223EBE1C9BE
:10EF1E00322C81215023222981E1C9E52AF180E397
:10EF2E0057D5C5CDB028C1F1EBE3E5EB3C577EFEDE
:10EF3E002CCA302FCD822629221581E122F1801E86
:10EF4E0000D511E5F52A1D813E19EB2A1F81EBCD67
:10EF5E007C26CA8A2F7EB923C26C2F7EB8235E23ED
:10EF6E005623C2582F3AF180B7C2BD23F1444DCA81
:10EF7E009A3596CAE82F1E10C3C823110400F1CA91
:10EF8E00D128712370234FCD91232323220A81711F
:10EF9E00233AF1801779010B00D2AD2FC1037123F3
:10EFAE007023F5E5CD4537EBE1F13DC2A52FF542D6
:10EFBE004BEB19DAA923CD9A23221F812B3600CDD4
:10EFCE007C26C2CB2F03572A0A815EEB2909EB2B35
:10EFDE002B73237223F1DA0C30474F7E2316E15E3A
:10EFEE00235623E3F5CD7C26D2852FE5CD4537D1AB
:10EFFE0019F13D444DC2ED2F2929C109EB2A158186
:10F00E00C92A1F81EB210000393AF280B7CA2C3091
:10F01E00CD9332CD93312A9F80EB2A08817D934F79
:10F02E007C9A41501E0021F280730690C370363ACE
:10F03E00F08047AFC33230CDC930CDBB3001A129EE
:10F04E00C5D5CD822628CD6D2EE5EB2B562B5EE158
:10F05E00CD7A2CCD822629CD8226B4444DE3712360
:10F06E0070C30831CDC930D5CD4E2DCD7A2CE35E8F
:10F07E002356237AB3CAC0237E23666FE52A2381E3
:10F08E00E32223812A2781E52A2581E5212581D5C1
:10F09E00CDB136E1CD772C2BCD0A28C2B423E12297
:10F0AE002581E1222781E1222381E1C9E52AA18080
:10F0BE00237CB5E1C01E16C3C823CD8226A73E8091
:10F0CE00321081B647CD722EC37A2CCD7A2CCDFE5E
:10F0DE0037CD0E31CD933201EE32C57E2323E5CDF1
:10F0EE006931E14E2346CD0231E56FCD8632D1C96D
:10F0FE00CD6931210481E5772323732372E1C92B76
:10F10E00062250E50EFF237E0CB7CA2431BACA245C
:10F11E0031B8C21531FE22CC0A28E323EB79CD0299
:10F12E00311104812AF6802229813E0132F280CDEE
:10F13E00B436CD7C2622F680E17EC01E1EC3C823C7
:10F14E0023CD0E31CD9332CDA8361C1DC80ACD8DE0
:10F15E0026FE0DCCBC2A03C35A31B70EF1F52A9FF9
:10F16E0080EB2A08812F4F06FF0923CD7C26DA87F4
:10F17E003122088123EBF1C9F11E1ACAC823BFF54B
:10F18E00016B31C52AF480220881210000E52A9FF7
:10F19E0080E521F880EB2AF680EBCD7C2601A431A8
:10F1AE00C2F8312A1B81EB2A1D81EBCD7C26CACBFE
:10F1BE00317E2323B7CDFB31C3B531C1EB2A1F817D
:10F1CE00EBCD7C26CA2132CDA8367BE509B7F2CA33
:10F1DE0031220A81E14E0600090923EB2A0A81EB4E
:10F1EE00CD7C26CACB3101EA31C5F6807E23235E63
:10F1FE00235623F0B7C8444D2A0881CD7C2660697A
:10F20E00D8E1E3CD7C26E3E56069D0C1F1F1E5D527
:10F21E00C5C9D1E17DB4C82B462B4EE52B2B6E26EE
:10F22E00000950592B444D2A0881CD8323E17123C7
:10F23E007069602BC39631C5E52A2981E3CD002D77
:10F24E00E3CD7B2C7EE52A2981E5861E1CDAC823B8
:10F25E00CDFF30D1CD9732E3CD9632E52A0681EB44
:10F26E00CD7D32CD7D3221952CE3E5C33031E1E306
:10F27E007E23234E23466F2C2DC80A120313C387F9
:10F28E0032CD7B2C2A2981EBCDB132EBC0D5505932
:10F29E001B4E2A0881CD7C26C2AF32470922088137
:10F2AE00E1C92AF6802B462B4E2B2BCD7C26C02275
:10F2BE00F680C9014130C5CD9032AF5732F2807E13
:10F2CE00B7C9014130C5CDC632CAD12823235E232A
:10F2DE00561AC93E01CDFF30CDDB332A068173C1EC
:10F2EE00C33031CD8B33AFE34FE57EB8DA003378E0
:10F2FE00110E00C5CD6931C1E1E5232346236668B1
:10F30E00060009444DCD02316FCD8632D1CD9732F4
:10F31E00C33031CD8B33D1D51A90C3F632EB7ECDBF
:10F32E0090330405CAD128C51EFFFE29CA4533CD28
:10F33E0082262CCDD833CD822629F1E301F832C5B1
:10F34E003DBE0600D04F7E91BB47D843C9CDC632D5
:10F35E00CA79345F23237E23666FE5194672E3C5AF
:10F36E007EFE24C27A33CDA33B180DFE25C2843314
:10F37E00CD133C1803CD6037C1E170C9EBCD8226A9
:10F38E0029C1D1C543C9CDDB33328480CD8380C33F
:10F39E004130CDC533C34B80CDC533F51E002BCDCB
:10F3AE000A28CABB33CD82262CCDD833C1CD83805B
:10F3BE00ABA0CABC33C9CDD833328480324C80CD99
:10F3CE0082262CC3D833CD0A28CD772CCDB6287AF9
:10F3DE00B7C2D1282BCD0A287BC9CDBC281AC34170
:10F3EE0030CD772CCDBC28D5CD82262CCDD833D19F
:10F3FE0012C921D738CDA836C31334CDA83621C1B2
:10F40E00D1CD823678B7C83A2C81B7CA9A3690D207
:10F41E002D342F3CEBCD8A36EBCD9A36C1D1FE1969
:10F42E00D0F5CDBF3667F1CDD834B4212981F25352
:10F43E0034CDB834D299342334CAC3232E01CDEE41
:10F44E0034C39934AF90477E9B5F237E9A57237EB9
:10F45E00994FDCC4346863AF4779B7C286344A54D7
:10F46E00656F78D608FEE0C26734AF322C81C905CD
:10F47E00297A1757798F4FF27E34785C45B7CA993F
:10F48E0034212C818677D27934C878212C81B7FC2F
:10F49E00AB3446237EE680A94FC39A361CC014C0F7
:10F4AE000CC00E8034C0C3C3237E835F237E8A5775
:10F4BE00237E894FC9212D817E2F77AF6F90477D97
:10F4CE009B5F7D9A577D994FC90600D608DAE734BF
:10F4DE00435A510E00C3DA34C6096FAF2DC8791FD7
:10F4EE004F7A1F577B1F5F781F47C3EA3400000017
:10F4FE008103AA561980F122768045AA3882CD5909
:10F50E0036B7EAD128212C817E01358011F3049083
:10F51E00F570D5C5CD1334C1D104CDAF3521FC3432
:10F52E00CD0A34210035CDA139018080110000CDE6
:10F53E001334F1CDD43701318011187221C1D1CDE0
:10F54E005936C82E00CD173679323B81EB223C81DD
:10F55E000100005058216434E5217035E5E521297C
:10F56E00817E23B7CA9C35E52E081F6779D28A356E
:10F57E00E52A3C8119EBE13A3B81891F4F7A1F57EF
:10F58E007B1F5F781F472D7CC27935E1C9435A51E5
:10F59E004FC9CD8A36012084110000CD9A36C1D1D3
:10F5AE00CD5936CAB7232EFFCD173634342B7E32C3
:10F5BE0057802B7E3253802B7E324F8041EBAF4FE4
:10F5CE00575F325A80E5C57DCD4E80DE003FD2E7D3
:10F5DE0035325A80F1F137D2C1E1793C3D1FFA9AAA
:10F5EE0034177B175F7A175779174F297817473AD1
:10F5FE005A8017325A8079B2B3C2D435E5212C81A4
:10F60E0035E1C2D435C3C32378B7CA3B367D212C2E
:10F61E0081AE80471FA878F23A36C68077CA9A35EF
:10F62E00CDBF36772BC9CD59362FE1B7E1F27934FC
:10F63E00C3C323CDA53678B7C8C602DAC32347CDD8
:10F64E001334212C8134C0C3C3233A2C81B7C83A5A
:10F65E002B81FE2F179FC03CC9CD5936068811004D
:10F66E0000212C814F70060023368017C36134CDE4
:10F67E005936F0212B817EEE8077C9EB2A2981E362
:10F68E00E52A2B81E3E5EBC9CDA836EB2229816073
:10F69E0069222B81EBC92129815E2356234E2346F5
:10F6AE0023C911298106041A77132305C2B636C958
:10F6BE00212B817E07371F773F1F2323777907374B
:10F6CE001F4F1FAEC978B7CA5936216236E5CD59DC
:10F6DE003679C8212B81AE79F8CDEE361FA9C92314
:10F6EE0078BEC02B79BEC02B7ABEC02B7B96C0E1F4
:10F6FE00E1C9474F575FB7C8E5CDA536CDBF36AE8A
:10F70E0067FC25373E9890CDD8347C17DCAB340699
:10F71E0000DCC434E1C91B7AA33CC00BC9212C8187
:10F72E007EFE983A2981D07ECD013736987BF579C9
:10F73E0017CD6134F1C921000078B1C83E1029DA25
:10F74E00852FEB29EBD25B3709DA852F3DC24D377A
:10F75E00C9FE2DF5CA6C37FE2BCA6C372BCD79340A
:10F76E0047575F2F4FCD0A28DABD37FE2ECA98377E
:10F77E00FE45C29C37CD0A28CDB02DCD0A28DADF42
:10F78E003714C29C37AF935F0C0CCA7437E57B906D
:10F79E00F4B537F2AB37F5CDA135F13CC29F37D179
:10F7AE00F1CC8236EBC9C8F5CD4236F13DC9D557FD
:10F7BE00788947C5E5D5CD4236F1D630CDD437E17F
:10F7CE00C1D1C37437CD8A36CD6B36C1D1C3133494
:10F7DE007B0707830786D6305FC38A37E5214C2324
:10F7EE00CD5031E1EBAF0698CD7036214F31E5218A
:10F7FE002E81E5CD59363620F20C38362D23363093
:10F80E00CAC238E5FC8236AFF5CDC8380143911136
:10F81E00F84FCDD436B7E23938F1CDB637F5C31B34
:10F82E0038CDA135F13CF5CDC838CD01343CCD01F4
:10F83E0037CD9A36010603F1813CFA5538FE08D2CF
:10F84E0055383C473E023D3DE1F511DB3805C266B9
:10F85E0038362E2336302305362ECCAF36C5E5D5B9
:10F86E00CDA536E1062F047B965F237A9E5723792A
:10F87E009E4F2B2BD27538CDB83423CD9A36EBE173
:10F88E007023C10DC2663805CAA6382B7EFE30CA5B
:10F89E009A38FE2EC4AF36F1CAC538364523362BFC
:10F8AE00F2B638362D2F3C062F04D60AD2B838C6FB
:10F8BE003A237023772371E1C901749411F723CD94
:10F8CE00D436B7E1E23038E900000080A08601109E
:10F8DE002700E803006400000A00000100002182F6
:10F8EE0036E3E9CD8A3621D738CD9736C1D1CD59F9
:10F8FE003678CA4039F20B39B7CAB723B7CA7A3449
:10F90E00D5C579F67FCDA536F22839D5C5CD2C379C
:10F91E00C1D1F5CDD436E17C1FE1222B81E1222924
:10F92E0081DCED38CC8236D5C5CD0D35C1D1CD4E6D
:10F93E0035CD8A36013881113BAACD4E353A2C8110
:10F94E00FE88D23536CD2C37C680C602DA3536F56E
:10F95E0021FC34CD0434CD4535F1C1D1F5CD103473
:10F96E00CD8236218039CDB039110000C14AC34E47
:10F97E003508402E9474704F2E776E02887AE6A06A
:10F98E002A7C50AAAA7EFFFF7F7F000080810000A4
:10F99E000081CD8A36114C35D5E5CDA536CD4E3507
:10F9AE00E1CD8A367E23CD973606F1C1D13DC8D53D
:10F9BE00C5F5E5CD4E35E1CDA836E5CD1334E1C321
:10F9CE00B939CD5936215E80FA323A217F80CD97F2
:10F9DE0036215E80C886E6070600772387874F09A3
:10F9EE00CDA836CD4E353A5D803CE6030600FE01CD
:10F9FE0088325D8021363A87874F09CD0434CDA5F4
:10FA0E00367B59EE4F4F36802B463680215C803444
:10FA1E007ED6ABC2293A770C151CCD6434217F807B
:10FA2E00C3B136772B772B77C30D3A68B1466899F9
:10FA3E00E9926910D1756821903ACD0434CD8A3699
:10FA4E0001498311DB0FCD9A36C1D1CDAF35CD8AA9
:10FA5E0036CD2C37C1D1CD103421943ACD0A34CDC8
:10FA6E00593637F27C3ACD0134CD5936B7F5F4829A
:10FA7E003621943ACD0434F1D4823621983AC3A17A
:10FA8E0039DB0F49810000007F05BAD71E86642638
:10FA9E00998758342387E05DA586DA0F4983CD8A8E
:10FAAE0036CD4C3AC1E1CD8A36EBCD9A36CD463ABB
:10FABE00C3AD35CD5936FCED38FC82363A2C81FE7D
:10FACE0081DADF3A0100815159CDAF35210A34E593
:10FADE0021E93ACDA13921903AC9094AD73B78029A
:10FAEE006E847BFEC12F7C74319A7D843D5A7DC815
:10FAFE007F917EE4BB4C7E6CAAAA7F00000081C978
:10FB0E00D7C93E0CCFC9CDD8337B328780C9CD77CC
:10FB1E002CCDBC28ED538B80ED538D80C9CDBC28E8
:10FB2E00D5E146237EC33230CD772CCDBC28D5CD42
:10FB3E0082262CCD772CCDBC28E3732372E1C9CD60
:10FB4E007A2CCDBC28C5212E817AFE00280CCD86BC
:10FB5E003B78FE302802702371237BCD863B7AFEE4
:10FB6E0000200578FE30280270237123AF772377AB
:10FB7E00C1212E81C3E03047E60FFE0A3802C607C8
:10FB8E00C6304F780F0F0F0FE60FFE0A3802C6076A
:10FB9E00C63047C9EB210000CDBC3BDADC3B180573
:10FBAE00CDBC3B381F29292929B56F18F3131AFE2E
:10FBBE0020CABC3BD630D8FE0A3805D607FE0AD876
:10FBCE00FE103FC9EB7A4BE5CD3130E1C91E26C39D
:10FBDE00C823CD7A2CCDBC28C5212E8106110578DF
:10FBEE00FE012808CB13CB1230F41804CB13CB1222
:10FBFE003E30CE0077230520F3AF772377C1212E39
:10FC0E0081C3E030EB210000CD303CDA3E3CD630F3
:10FC1E0029B56FCD303C30F6EB7A4BE5CD3130E186
:10FC2E00C9131AFE20CA303CFE30D8FE323FC91E20
:10FC3E0028C3C823C300003E00329280C31420F5AF
:10FC4E00A0C1B83E00C9CD8D26C3B22AFFFFFFFF6B
:10FC5E00FFFFFFFFFFFFFFFFFFFFFFFFFFFFFFFFA6
:10FC6E00FFFFFFFFFFFFFFFFFFFFFFFFFFFFFFFF96
:10FC7E00FFFFFFFFFFFFFFFFFFFFFFFFFFFFFFFF86
:10FC8E00FFFFFFFFFFFFFFFFFFFFFFFFFFFFFFFF76
:10FC9E00FFFFFFFFFFFFFFFFFFFFFFFFFFFFFFFF66
:10FCAE00FFFFFFFFFFFFFFFFFFFFFFFFFFFFFFFF56
:10FCBE00FFFFFFFFFFFFFFFFFFFFFFFFFFFFFFFF46
:10FCCE00FFFFFFFFFFFFFFFFFFFFFFFFFFFFFFFF36
:10FCDE00FFFFFFFFFFFFFFFFFFFFFFFFFFFFFFFF26
:10FCEE00FFFFFFFFFFFFFFFFFFFFFFFFFFFFFFFF16
:10FCFE00FF000000000000000000000000000000F7
:10FD0E0000000000000000000000000000000000E5
:10FD1E0000000000000000000000000000000000D5
:10FD2E0000000000000000000000000000000000C5
:10FD3E0000000000000000000000000000000000B5
:02FFFE00000001
:020000040001F9
:10000000F6C401F5F7C402F5F8C403F5F5C404F528
:10001000AE9AD1C406F5CFC405F5CEAA12EF80F092
:1000200014EF80F041EF80F0800E065CD8A01BEF4B
:1000300080F01DEF80F030EF80F0A00E065CD8B0AD
:1000400024EF80F026EF80F030EF80F0000E0524E2
:10005000D96E970E0620DA6ED0C4DFF43CEF80F044
:10006000E00E06180510D8A438EF80F03AEF80F0C3
:100070003CEF80F0D0C4C9F20001D785D7959CEF42
:1000800080F0000EC86E400E065CD8B04AEF80F0DB
:100090004CEF80F057EF80F0FF0E0524F66EBF0E98
:1000A0000620F76E0800F5C4C0F491EF80F0800ED2
:1000B000065CD8A05EEF80F060EF80F073EF80F018
:1000C000A00E065CD8B067EF80F069EF80F073EFA8
:1000D00080F0000E0524D96E970E0620DA6EDF50F0
:1000E000C06E91EF80F0050407E1E00E0618D8A479
:1000F0007CEF80F07EEF80F082EF80F0B7C4C0F438
:1001000091EF80F0E00E06180510D8A48AEF80F079
:100110008CEF80F090EF80F0C7C2C0F491EF80F0D8
:10012000C0680001D785D795CEA299EF80F09BEFEC
:1001300080F094EF80F0C86804C5F5F403C5F8F4C6
:1001400002C5F7F401C5F6F41100080E0001B16F05
:10015000000E0401186F1969C968000E086F09695B
:10016000C768000E106F1169C86820912181CA808C
:100170002093C292CA922095C284CA9400910181B0
:10018000C680009B018BC68A3F0E0201046F0401EA
:100190000097C6962F0E436F400E446F010E456FB9
:1001A000000E476F4691468B468F010E0201D56FB8
:1001B000A00ED46FD189D18B0401009FC68E070E8B
:1001C0000201766F0401009DBE8CC69C260E0201C2
:1001D000076FD28F040100930183C682010E0201D2
:1001E000616F040100950185C684020E0201626FF1
:1001F00004010099BE88C698010E0201056F000E29
:100200000001D56F820ED76F000ED86F010ED96F27
:100210007F0EDA6F7F0EDB6F010EDC6F040EDD6F79
:10022000000EDE6F000EDF6F000ED46F8C0ED66FE7
:10023000550E0401596FAA0E596F5991080E5D6F42
:10024000000E5E6F000E5F6F550E596FAA0E596F4C
:100250005981AE9A9E8AD68EC2822DEF81F085EFAB
:1002600000F005EE00F318EE00F0EE6AE550E15004
:10027000FCE1E250FAE1066A056A0401080E5D6FCE
:10028000000E5E6F000E5F6F000EF86E0001A5EFAE
:0202900080F0FC
:02029400110057
:020000040020DA
:10000000FF0FFF0FFF0FFF0FFF0FFF0FFF0FFF0F80
:10001000FF0FFF0FFF0FFF0FFF0FFF0FFF0FFF0F70
:10002000FF0FFF0FFF0FFF0FFF0FFF0FFF0FFF0F60
:10003000FF0FFF0FFF0FFF0FFF0FFF0FFF0FFF0F50
:020000040030CA
:100000008CEFFFF79FFFFFFFFFFFFFFFFFFFFFFFEB
:10001000FFFFFFFFFFFFFFFFFFFFFFFFFFFFFFFFF0
:04002000FFFFFFFFE0
:00000001FF
